{"abi":[{"type":"function","name":"addressToBytes32","inputs":[{"name":"addr","type":"address","internalType":"address"}],"outputs":[{"name":"","type":"bytes32","internalType":"bytes32"}],"stateMutability":"pure"},{"type":"function","name":"bytes32ToAddress","inputs":[{"name":"_buf","type":"bytes32","internalType":"bytes32"}],"outputs":[{"name":"","type":"address","internalType":"address"}],"stateMutability":"pure"}],"bytecode":{"object":"0x610174610029600b82828239805160001a607314151561001b57fe5b30600052607381538281f350fe73000000000000000000000000000000000000000030146080604052600436106100445760003560e01c80635ced058e1461004a57806382c947b7146100a757610044565b60006000fd5b61007b600480360360208110156100615760006000fd5b810190808035600019169060200190929190505050610104565b604051808273ffffffffffffffffffffffffffffffffffffffff16815260200191505060405180910390f35b6100ea600480360360208110156100be5760006000fd5b81019080803573ffffffffffffffffffffffffffffffffffffffff169060200190929190505050610116565b604051808260001916815260200191505060405180910390f35b60008160001c9050610111565b919050565b60008173ffffffffffffffffffffffffffffffffffffffff1660001b9050610139565b91905056fea2646970667358221220d84a007126e58e18b16705c9fea17361d680d116a86a6f073bc68de10f1f1d8f64736f6c63430007060033","linkReferences":{}},"methodIdentifiers":{"addressToBytes32(address)":"82c947b7","bytes32ToAddress(bytes32)":"5ced058e"},"id":26}