{"abi":[{"type":"constructor","inputs":[{"name":"_localDomain","type":"uint32","internalType":"uint32"},{"name":"_attester","type":"address","internalType":"address"},{"name":"_maxMessageBodySize","type":"uint32","internalType":"uint32"},{"name":"_version","type":"uint32","internalType":"uint32"}],"stateMutability":"nonpayable"},{"type":"function","name":"acceptOwnership","inputs":[],"outputs":[],"stateMutability":"nonpayable"},{"type":"function","name":"attesterManager","inputs":[],"outputs":[{"name":"","type":"address","internalType":"address"}],"stateMutability":"view"},{"type":"function","name":"disableAttester","inputs":[{"name":"attester","type":"address","internalType":"address"}],"outputs":[],"stateMutability":"nonpayable"},{"type":"function","name":"enableAttester","inputs":[{"name":"newAttester","type":"address","internalType":"address"}],"outputs":[],"stateMutability":"nonpayable"},{"type":"function","name":"getEnabledAttester","inputs":[{"name":"index","type":"uint256","internalType":"uint256"}],"outputs":[{"name":"","type":"address","internalType":"address"}],"stateMutability":"view"},{"type":"function","name":"getNumEnabledAttesters","inputs":[],"outputs":[{"name":"","type":"uint256","internalType":"uint256"}],"stateMutability":"view"},{"type":"function","name":"isEnabledAttester","inputs":[{"name":"attester","type":"address","internalType":"address"}],"outputs":[{"name":"","type":"bool","internalType":"bool"}],"stateMutability":"view"},{"type":"function","name":"localDomain","inputs":[],"outputs":[{"name":"","type":"uint32","internalType":"uint32"}],"stateMutability":"view"},{"type":"function","name":"maxMessageBodySize","inputs":[],"outputs":[{"name":"","type":"uint256","internalType":"uint256"}],"stateMutability":"view"},{"type":"function","name":"nextAvailableNonce","inputs":[],"outputs":[{"name":"","type":"uint64","internalType":"uint64"}],"stateMutability":"view"},{"type":"function","name":"owner","inputs":[],"outputs":[{"name":"","type":"address","internalType":"address"}],"stateMutability":"view"},{"type":"function","name":"pause","inputs":[],"outputs":[],"stateMutability":"nonpayable"},{"type":"function","name":"paused","inputs":[],"outputs":[{"name":"","type":"bool","internalType":"bool"}],"stateMutability":"view"},{"type":"function","name":"pauser","inputs":[],"outputs":[{"name":"","type":"address","internalType":"address"}],"stateMutability":"view"},{"type":"function","name":"pendingOwner","inputs":[],"outputs":[{"name":"","type":"address","internalType":"address"}],"stateMutability":"view"},{"type":"function","name":"receiveMessage","inputs":[{"name":"message","type":"bytes","internalType":"bytes"},{"name":"attestation","type":"bytes","internalType":"bytes"}],"outputs":[{"name":"success","type":"bool","internalType":"bool"}],"stateMutability":"nonpayable"},{"type":"function","name":"replaceMessage","inputs":[{"name":"originalMessage","type":"bytes","internalType":"bytes"},{"name":"originalAttestation","type":"bytes","internalType":"bytes"},{"name":"newMessageBody","type":"bytes","internalType":"bytes"},{"name":"newDestinationCaller","type":"bytes32","internalType":"bytes32"}],"outputs":[],"stateMutability":"nonpayable"},{"type":"function","name":"rescueERC20","inputs":[{"name":"tokenContract","type":"address","internalType":"contract IERC20"},{"name":"to","type":"address","internalType":"address"},{"name":"amount","type":"uint256","internalType":"uint256"}],"outputs":[],"stateMutability":"nonpayable"},{"type":"function","name":"rescuer","inputs":[],"outputs":[{"name":"","type":"address","internalType":"address"}],"stateMutability":"view"},{"type":"function","name":"sendMessage","inputs":[{"name":"destinationDomain","type":"uint32","internalType":"uint32"},{"name":"recipient","type":"bytes32","internalType":"bytes32"},{"name":"messageBody","type":"bytes","internalType":"bytes"}],"outputs":[{"name":"","type":"uint64","internalType":"uint64"}],"stateMutability":"nonpayable"},{"type":"function","name":"sendMessageWithCaller","inputs":[{"name":"destinationDomain","type":"uint32","internalType":"uint32"},{"name":"recipient","type":"bytes32","internalType":"bytes32"},{"name":"destinationCaller","type":"bytes32","internalType":"bytes32"},{"name":"messageBody","type":"bytes","internalType":"bytes"}],"outputs":[{"name":"","type":"uint64","internalType":"uint64"}],"stateMutability":"nonpayable"},{"type":"function","name":"setMaxMessageBodySize","inputs":[{"name":"newMaxMessageBodySize","type":"uint256","internalType":"uint256"}],"outputs":[],"stateMutability":"nonpayable"},{"type":"function","name":"setSignatureThreshold","inputs":[{"name":"newSignatureThreshold","type":"uint256","internalType":"uint256"}],"outputs":[],"stateMutability":"nonpayable"},{"type":"function","name":"signatureThreshold","inputs":[],"outputs":[{"name":"","type":"uint256","internalType":"uint256"}],"stateMutability":"view"},{"type":"function","name":"transferOwnership","inputs":[{"name":"newOwner","type":"address","internalType":"address"}],"outputs":[],"stateMutability":"nonpayable"},{"type":"function","name":"unpause","inputs":[],"outputs":[],"stateMutability":"nonpayable"},{"type":"function","name":"updateAttesterManager","inputs":[{"name":"newAttesterManager","type":"address","internalType":"address"}],"outputs":[],"stateMutability":"nonpayable"},{"type":"function","name":"updatePauser","inputs":[{"name":"_newPauser","type":"address","internalType":"address"}],"outputs":[],"stateMutability":"nonpayable"},{"type":"function","name":"updateRescuer","inputs":[{"name":"newRescuer","type":"address","internalType":"address"}],"outputs":[],"stateMutability":"nonpayable"},{"type":"function","name":"usedNonces","inputs":[{"name":"","type":"bytes32","internalType":"bytes32"}],"outputs":[{"name":"","type":"uint256","internalType":"uint256"}],"stateMutability":"view"},{"type":"function","name":"version","inputs":[],"outputs":[{"name":"","type":"uint32","internalType":"uint32"}],"stateMutability":"view"},{"type":"event","name":"AttesterDisabled","inputs":[{"name":"attester","type":"address","indexed":true,"internalType":"address"}],"anonymous":false},{"type":"event","name":"AttesterEnabled","inputs":[{"name":"attester","type":"address","indexed":true,"internalType":"address"}],"anonymous":false},{"type":"event","name":"AttesterManagerUpdated","inputs":[{"name":"previousAttesterManager","type":"address","indexed":true,"internalType":"address"},{"name":"newAttesterManager","type":"address","indexed":true,"internalType":"address"}],"anonymous":false},{"type":"event","name":"MaxMessageBodySizeUpdated","inputs":[{"name":"newMaxMessageBodySize","type":"uint256","indexed":false,"internalType":"uint256"}],"anonymous":false},{"type":"event","name":"MessageReceived","inputs":[{"name":"caller","type":"address","indexed":true,"internalType":"address"},{"name":"sourceDomain","type":"uint32","indexed":false,"internalType":"uint32"},{"name":"nonce","type":"uint64","indexed":true,"internalType":"uint64"},{"name":"sender","type":"bytes32","indexed":false,"internalType":"bytes32"},{"name":"messageBody","type":"bytes","indexed":false,"internalType":"bytes"}],"anonymous":false},{"type":"event","name":"MessageSent","inputs":[{"name":"message","type":"bytes","indexed":false,"internalType":"bytes"}],"anonymous":false},{"type":"event","name":"OwnershipTransferStarted","inputs":[{"name":"previousOwner","type":"address","indexed":true,"internalType":"address"},{"name":"newOwner","type":"address","indexed":true,"internalType":"address"}],"anonymous":false},{"type":"event","name":"OwnershipTransferred","inputs":[{"name":"previousOwner","type":"address","indexed":true,"internalType":"address"},{"name":"newOwner","type":"address","indexed":true,"internalType":"address"}],"anonymous":false},{"type":"event","name":"Pause","inputs":[],"anonymous":false},{"type":"event","name":"PauserChanged","inputs":[{"name":"newAddress","type":"address","indexed":true,"internalType":"address"}],"anonymous":false},{"type":"event","name":"RescuerChanged","inputs":[{"name":"newRescuer","type":"address","indexed":true,"internalType":"address"}],"anonymous":false},{"type":"event","name":"SignatureThresholdUpdated","inputs":[{"name":"oldSignatureThreshold","type":"uint256","indexed":false,"internalType":"uint256"},{"name":"newSignatureThreshold","type":"uint256","indexed":false,"internalType":"uint256"}],"anonymous":false},{"type":"event","name":"Unpause","inputs":[],"anonymous":false}],"bytecode":{"object":"0x60c06040526000600260146101000a81548160ff0219169083151502179055503480156200002d5760006000fd5b50604051620057693803806200576983398181016040526080811015620000545760006000fd5b81019080805190602001909291908051906020019092919080519060200190929190805190602001909291905050505b825b5b620000a76200009b6200012a60201b60201c565b6200013860201b60201c565b5b620000b9336200017760201b60201c565b60016004600050819090905550620000d781620001bc60201b60201c565b5b508363ffffffff1660808163ffffffff1660e01b815260040150508163ffffffff1660086000508190909055508063ffffffff1660a08163ffffffff1660e01b815260040150505b50505050620005f1565b600033905062000135565b90565b600160006101000a81549073ffffffffffffffffffffffffffffffffffffffff021916905562000173816200040c60201b62002bfc1760201c565b5b50565b80600760006101000a81548173ffffffffffffffffffffffffffffffffffffffff021916908373ffffffffffffffffffffffffffffffffffffffff1602179055505b50565b600760009054906101000a900473ffffffffffffffffffffffffffffffffffffffff1673ffffffffffffffffffffffffffffffffffffffff163373ffffffffffffffffffffffffffffffffffffffff1614151562000285576040517f08c379a000000000000000000000000000000000000000000000000000000000815260040180806020018281038252601b8152602001807f43616c6c6572206e6f74206174746573746572206d616e61676572000000000081526020015060200191505060405180910390fd5b600073ffffffffffffffffffffffffffffffffffffffff168173ffffffffffffffffffffffffffffffffffffffff16141515156200032e576040517f08c379a000000000000000000000000000000000000000000000000000000000815260040180806020018281038252601c8152602001807f4e6577206174746573746572206d757374206265206e6f6e7a65726f0000000081526020015060200191505060405180910390fd5b6200034c816005600050620004d360201b62002cc31790919060201c565b1515620003c4576040517f08c379a00000000000000000000000000000000000000000000000000000000081526004018080602001828103825260188152602001807f417474657374657220616c726561647920656e61626c6564000000000000000081526020015060200191505060405180910390fd5b8073ffffffffffffffffffffffffffffffffffffffff167f5b99bab45c72ce67e89466dbc47480b9c1fde1400e7268bbf463b8354ee4653f60405160405180910390a25b5b50565b6000600060009054906101000a900473ffffffffffffffffffffffffffffffffffffffff16905081600060006101000a81548173ffffffffffffffffffffffffffffffffffffffff021916908373ffffffffffffffffffffffffffffffffffffffff1602179055508173ffffffffffffffffffffffffffffffffffffffff168173ffffffffffffffffffffffffffffffffffffffff167f8be0079c531659141344cd1fd0a4f28419497f9722a3daafe3b4186f6b6457e060405160405180910390a3505b50565b600062000506836000016000508373ffffffffffffffffffffffffffffffffffffffff1660001b6200051460201b60201c565b90506200050e565b92915050565b6000620005288383620005b960201b60201c565b1515620005a8578260000160005082908060018154018082558091505060019003906000526020600020900160005b90919091909150906000191690558260000160005080549050836001016000506000846000191660001916815260200190815260200160002060005081909090555060019050620005b356620005b2565b60009050620005b3565b5b92915050565b6000600083600101600050600084600019166000191681526020019081526020016000206000505414159050620005eb565b92915050565b60805160e01c60a05160e01c615135620006346000398061119d52806116335280612e7e5250806114115280611d6c52806121bd5280612e9f52506151356000f3fe60806040523480156100115760006000fd5b50600436106101ea5760003560e01c80638da5cb5b11610110578063bbde5374116100a3578063f2fde38b11610072578063f2fde38b1461097c578063f7259a75146109c1578063fae3687914610a8a578063feb6172414610acf576101ea565b8063bbde53741461087b578063beb673d8146108aa578063de7769d414610903578063e30c397814610948576101ea565b8063a82f2e26116100df578063a82f2e261461068f578063af47b9bb146106ad578063b2118a8d146106cb578063b857b7741461073a576101ea565b80638da5cb5b146105c457806392492c68146105f85780639b0d94b7146106275780639fd0506d1461065b576101ea565b8063554bab3c116101885780637af82f60116101575780637af82f60146105135780638371744e1461056e5780638456cb59146105965780638d3638f4146105a0576101ea565b8063554bab3c146103b557806357ecfd28146103fa5780635c975abb146104e957806379ba509714610509576101ea565b806338a63183116101c457806338a63183146103355780633f4ba83a1461036957806351079a531461037357806354fd4d5014610391576101ea565b80630ba469bc146101f05780632ab60045146102ab5780632d025080146102f0576101ea565b60006000fd5b61028b600480360360608110156102075760006000fd5b81019080803563ffffffff1690602001909291908035600019169060200190929190803590602001906401000000008111156102435760006000fd5b8201836020820111156102565760006000fd5b803590602001918460018302840111640100000000831117156102795760006000fd5b90919293909091929390505050610b16565b604051808267ffffffffffffffff16815260200191505060405180910390f35b6102ee600480360360208110156102c25760006000fd5b81019080803573ffffffffffffffffffffffffffffffffffffffff169060200190929190505050610c8e565b005b610333600480360360208110156103075760006000fd5b81019080803573ffffffffffffffffffffffffffffffffffffffff169060200190929190505050610dad565b005b61033d611058565b604051808273ffffffffffffffffffffffffffffffffffffffff16815260200191505060405180910390f35b610371611087565b005b61037b61117a565b6040518082815260200191505060405180910390f35b61039961119b565b604051808263ffffffff16815260200191505060405180910390f35b6103f8600480360360208110156103cc5760006000fd5b81019080803573ffffffffffffffffffffffffffffffffffffffff1690602001909291905050506111bf565b005b6104d1600480360360408110156104115760006000fd5b810190808035906020019064010000000081111561042f5760006000fd5b8201836020820111156104425760006000fd5b803590602001918460018302840111640100000000831117156104655760006000fd5b90919293909091929390803590602001906401000000008111156104895760006000fd5b82018360208201111561049c5760006000fd5b803590602001918460018302840111640100000000831117156104bf5760006000fd5b90919293909091929390505050611300565b60405180821515815260200191505060405180910390f35b6104f1611b6d565b60405180821515815260200191505060405180910390f35b610511611b80565b005b6105566004803603602081101561052a5760006000fd5b81019080803573ffffffffffffffffffffffffffffffffffffffff169060200190929190505050611c38565b60405180821515815260200191505060405180910390f35b610576611c5d565b604051808267ffffffffffffffff16815260200191505060405180910390f35b61059e611c77565b005b6105a8611d6a565b604051808263ffffffff16815260200191505060405180910390f35b6105cc611d8e565b604051808273ffffffffffffffffffffffffffffffffffffffff16815260200191505060405180910390f35b6106256004803603602081101561060f5760006000fd5b8101908080359060200190929190505050611dbd565b005b61062f611e18565b604051808273ffffffffffffffffffffffffffffffffffffffff16815260200191505060405180910390f35b610663611e47565b604051808273ffffffffffffffffffffffffffffffffffffffff16815260200191505060405180910390f35b610697611e76565b6040518082815260200191505060405180910390f35b6106b5611e7f565b6040518082815260200191505060405180910390f35b610738600480360360608110156106e25760006000fd5b81019080803573ffffffffffffffffffffffffffffffffffffffff169060200190929190803573ffffffffffffffffffffffffffffffffffffffff16906020019092919080359060200190929190505050611e88565b005b610879600480360360808110156107515760006000fd5b810190808035906020019064010000000081111561076f5760006000fd5b8201836020820111156107825760006000fd5b803590602001918460018302840111640100000000831117156107a55760006000fd5b90919293909091929390803590602001906401000000008111156107c95760006000fd5b8201836020820111156107dc5760006000fd5b803590602001918460018302840111640100000000831117156107ff5760006000fd5b90919293909091929390803590602001906401000000008111156108235760006000fd5b8201836020820111156108365760006000fd5b803590602001918460018302840111640100000000831117156108595760006000fd5b909192939090919293908035600019169060200190929190505050611f62565b005b6108a8600480360360208110156108925760006000fd5b81019080803590602001909291905050506122b8565b005b6108d7600480360360208110156108c15760006000fd5b810190808035906020019092919050505061256b565b604051808273ffffffffffffffffffffffffffffffffffffffff16815260200191505060405180910390f35b6109466004803603602081101561091a5760006000fd5b81019080803573ffffffffffffffffffffffffffffffffffffffff169060200190929190505050612590565b005b6109506126dc565b604051808273ffffffffffffffffffffffffffffffffffffffff16815260200191505060405180910390f35b6109bf600480360360208110156109935760006000fd5b81019080803573ffffffffffffffffffffffffffffffffffffffff16906020019092919050505061270b565b005b610a6a600480360360808110156109d85760006000fd5b81019080803563ffffffff1690602001909291908035600019169060200190929190803560001916906020019092919080359060200190640100000000811115610a225760006000fd5b820183602082011115610a355760006000fd5b80359060200191846001830284011164010000000083111715610a585760006000fd5b909192939090919293905050506127c6565b604051808267ffffffffffffffff16815260200191505060405180910390f35b610acd60048036036020811015610aa15760006000fd5b81019080803573ffffffffffffffffffffffffffffffffffffffff16906020019092919050505061299b565b005b610b0060048036036020811015610ae65760006000fd5b810190808035600019169060200190929190505050612be1565b6040518082815260200191505060405180910390f35b6000600260149054906101000a900460ff16151515610ba0576040517f08c379a00000000000000000000000000000000000000000000000000000000081526004018080602001828103825260108152602001807f5061757361626c653a207061757365640000000000000000000000000000000081526020015060200191505060405180910390fd5b6000600060001b90506000610bb9612d0163ffffffff16565b9050600073__$8c977731748aa4504deed57239565df533$__6382c947b7336040518263ffffffff1660e01b8152600401808273ffffffffffffffffffffffffffffffffffffffff16815260200191505060206040518083038186803b158015610c235760006000fd5b505af4158015610c38573d600060003e3d6000fd5b505050506040513d6020811015610c4f5760006000fd5b81019080805190602001909291905050509050610c7788888584868b8b612d6d63ffffffff16565b819350505050610c85565050505b5b949350505050565b610c9c612fbd63ffffffff16565b600073ffffffffffffffffffffffffffffffffffffffff168173ffffffffffffffffffffffffffffffffffffffff1614151515610d24576040517f08c379a000000000000000000000000000000000000000000000000000000000815260040180806020018281038252602a815260200180614ecc602a913960400191505060405180910390fd5b80600360006101000a81548173ffffffffffffffffffffffffffffffffffffffff021916908373ffffffffffffffffffffffffffffffffffffffff1602179055508073ffffffffffffffffffffffffffffffffffffffff167fe475e580d85111348e40d8ca33cfdd74c30fe1655c2d8537a13abc10065ffa5a60405160405180910390a25b5b50565b600760009054906101000a900473ffffffffffffffffffffffffffffffffffffffff1673ffffffffffffffffffffffffffffffffffffffff163373ffffffffffffffffffffffffffffffffffffffff16141515610e75576040517f08c379a000000000000000000000000000000000000000000000000000000000815260040180806020018281038252601b8152602001807f43616c6c6572206e6f74206174746573746572206d616e61676572000000000081526020015060200191505060405180910390fd5b6000610e8561117a63ffffffff16565b9050600181111515610f02576040517f08c379a00000000000000000000000000000000000000000000000000000000081526004018080602001828103825260198152602001807f546f6f2066657720656e61626c6564206174746573746572730000000000000081526020015060200191505060405180910390fd5b60046000505481111515610f81576040517f08c379a000000000000000000000000000000000000000000000000000000000815260040180806020018281038252601e8152602001807f5369676e6174757265207468726573686f6c6420697320746f6f206c6f77000081526020015060200191505060405180910390fd5b610f9882600560005061308090919063ffffffff16565b151561100f576040517f08c379a00000000000000000000000000000000000000000000000000000000081526004018080602001828103825260198152602001807f417474657374657220616c72656164792064697361626c65640000000000000081526020015060200191505060405180910390fd5b8173ffffffffffffffffffffffffffffffffffffffff167f78e573a18c75957b7cadaab01511aa1c19a659f06ecf53e01de37ed92d3261fc60405160405180910390a2505b5b50565b6000600360009054906101000a900473ffffffffffffffffffffffffffffffffffffffff169050611084565b90565b600260009054906101000a900473ffffffffffffffffffffffffffffffffffffffff1673ffffffffffffffffffffffffffffffffffffffff163373ffffffffffffffffffffffffffffffffffffffff1614151561112f576040517f08c379a000000000000000000000000000000000000000000000000000000000815260040180806020018281038252602281526020018061502c6022913960400191505060405180910390fd5b6000600260146101000a81548160ff0219169083151502179055507f7805862f689e2f13df9f062ff482ad3ad112aca9e0847911ed832e158c525b3360405160405180910390a15b5b565b600061119160056000506130be909063ffffffff16565b9050611198565b90565b7f000000000000000000000000000000000000000000000000000000000000000081565b6111cd612fbd63ffffffff16565b600073ffffffffffffffffffffffffffffffffffffffff168173ffffffffffffffffffffffffffffffffffffffff1614151515611255576040517f08c379a0000000000000000000000000000000000000000000000000000000008152600401808060200182810382526028815260200180614e596028913960400191505060405180910390fd5b80600260006101000a81548173ffffffffffffffffffffffffffffffffffffffff021916908373ffffffffffffffffffffffffffffffffffffffff160217905550600260009054906101000a900473ffffffffffffffffffffffffffffffffffffffff1673ffffffffffffffffffffffffffffffffffffffff167fb80482a293ca2e013eda8683c9bd7fc8347cfdaeea5ede58cba46df502c2a60460405160405180910390a25b5b50565b6000600260149054906101000a900460ff1615151561138a576040517f08c379a00000000000000000000000000000000000000000000000000000000081526004018080602001828103825260108152602001807f5061757361626c653a207061757365640000000000000000000000000000000081526020015060200191505060405180910390fd5b61139c858585856130e163ffffffff16565b60006113f6600087878080601f016020809104026020016040519081016040528093929190818152602001838380828437600081840152601f19601f8201169050808301925050505050505061336090919063ffffffff16565b905061140f8162ffffff1916613399909063ffffffff16565b7f000000000000000000000000000000000000000000000000000000000000000063ffffffff1661144d8262ffffff19166134ce909063ffffffff16565b63ffffffff161415156114cb576040517f08c379a000000000000000000000000000000000000000000000000000000000815260040180806020018281038252601a8152602001807f496e76616c69642064657374696e6174696f6e20646f6d61696e00000000000081526020015060200191505060405180910390fd5b600060001b600019166114eb8262ffffff19166134fc909063ffffffff16565b600019161415156116315773__$8c977731748aa4504deed57239565df533$__6382c947b7336040518263ffffffff1660e01b8152600401808273ffffffffffffffffffffffffffffffffffffffff16815260200191505060206040518083038186803b15801561155c5760006000fd5b505af4158015611571573d600060003e3d6000fd5b505050506040513d60208110156115885760006000fd5b8101908080519060200190929190505050600019166115b48262ffffff19166134fc909063ffffffff16565b60001916141515611630576040517f08c379a000000000000000000000000000000000000000000000000000000000815260040180806020018281038252601a8152602001807f496e76616c69642063616c6c657220666f72206d65737361676500000000000081526020015060200191505060405180910390fd5b5b7f000000000000000000000000000000000000000000000000000000000000000063ffffffff1661166f8262ffffff191661352a909063ffffffff16565b63ffffffff161415156116ed576040517f08c379a00000000000000000000000000000000000000000000000000000000081526004018080602001828103825260178152602001807f496e76616c6964206d6573736167652076657273696f6e00000000000000000081526020015060200191505060405180910390fd5b60006117068262ffffff1916613558909063ffffffff16565b905060006117218362ffffff1916613586909063ffffffff16565b9050600061173583836135b463ffffffff16565b90506000600a60005060008360001916600019168152602001908152602001600020600050541415156117d3576040517f08c379a00000000000000000000000000000000000000000000000000000000081526004018080602001828103825260128152602001807f4e6f6e636520616c72656164792075736564000000000000000000000000000081526020015060200191505060405180910390fd5b6001600a6000506000836000191660001916815260200190815260200160002060005081909090555060006118158562ffffff1916613608909063ffffffff16565b905060006118466118338762ffffff1916613636909063ffffffff16565b62ffffff1916613690909063ffffffff16565b905073__$8c977731748aa4504deed57239565df533$__635ced058e6118798862ffffff19166136e5909063ffffffff16565b6040518263ffffffff1660e01b8152600401808260001916815260200191505060206040518083038186803b1580156118b25760006000fd5b505af41580156118c7573d600060003e3d6000fd5b505050506040513d60208110156118de5760006000fd5b810190808051906020019092919050505073ffffffffffffffffffffffffffffffffffffffff166396abeb708684846040518463ffffffff1660e01b8152600401808463ffffffff1681526020018360001916815260200180602001828103825283818151815260200191508051906020019080838360005b838110156119735780820151818401525b602081019050611957565b50505050905090810190601f1680156119a05780820380516001836020036101000a031916815260200191505b50945050505050602060405180830381600087803b1580156119c25760006000fd5b505af11580156119d7573d600060003e3d6000fd5b505050506040513d60208110156119ee5760006000fd5b81019080805190602001909291905050501515611a76576040517f08c379a000000000000000000000000000000000000000000000000000000000815260040180806020018281038252601d8152602001807f68616e646c65526563656976654d6573736167652829206661696c656400000081526020015060200191505060405180910390fd5b8367ffffffffffffffff163373ffffffffffffffffffffffffffffffffffffffff167f58200b4c34ae05ee816d710053fff3fb75af4395915d3d2a771b24aa10e3cc5d878585604051808463ffffffff1681526020018360001916815260200180602001828103825283818151815260200191508051906020019080838360005b83811015611b135780820151818401525b602081019050611af7565b50505050905090810190601f168015611b405780820380516001836020036101000a031916815260200191505b5094505050505060405180910390a360019650505050505050611b64565050505050505b5b949350505050565b600260149054906101000a900460ff1681565b6000611b9061371363ffffffff16565b90508073ffffffffffffffffffffffffffffffffffffffff16611bb76126dc63ffffffff16565b73ffffffffffffffffffffffffffffffffffffffff16141515611c25576040517f08c379a0000000000000000000000000000000000000000000000000000000008152600401808060200182810382526029815260200180614ea36029913960400191505060405180910390fd5b611c348161372063ffffffff16565b505b565b6000611c5182600560005061375890919063ffffffff16565b9050611c58565b919050565b600960009054906101000a900467ffffffffffffffff1681565b600260009054906101000a900473ffffffffffffffffffffffffffffffffffffffff1673ffffffffffffffffffffffffffffffffffffffff163373ffffffffffffffffffffffffffffffffffffffff16141515611d1f576040517f08c379a000000000000000000000000000000000000000000000000000000000815260040180806020018281038252602281526020018061502c6022913960400191505060405180910390fd5b6001600260146101000a81548160ff0219169083151502179055507f6985a02210a168e66602d3235cb6db0e70f92b3ba4d376a33c0f3d9434bff62560405160405180910390a15b5b565b7f000000000000000000000000000000000000000000000000000000000000000081565b6000600060009054906101000a900473ffffffffffffffffffffffffffffffffffffffff169050611dba565b90565b611dcb612fbd63ffffffff16565b8060086000508190909055507fb13bf6bebed03d1b318e3ea32e4b2a3ad9f5e2312cdf340a2f4bbfaee39f928d6008600050546040518082815260200191505060405180910390a15b5b50565b6000600760009054906101000a900473ffffffffffffffffffffffffffffffffffffffff169050611e44565b90565b6000600260009054906101000a900473ffffffffffffffffffffffffffffffffffffffff169050611e73565b90565b60046000505481565b60086000505481565b600360009054906101000a900473ffffffffffffffffffffffffffffffffffffffff1673ffffffffffffffffffffffffffffffffffffffff163373ffffffffffffffffffffffffffffffffffffffff16141515611f30576040517f08c379a0000000000000000000000000000000000000000000000000000000008152600401808060200182810382526024815260200180614fce6024913960400191505060405180910390fd5b611f5b82828573ffffffffffffffffffffffffffffffffffffffff166137969092919063ffffffff16565b5b5b505050565b600260149054906101000a900460ff16151515611fea576040517f08c379a00000000000000000000000000000000000000000000000000000000081526004018080602001828103825260108152602001807f5061757361626c653a207061757365640000000000000000000000000000000081526020015060200191505060405180910390fd5b611ffc878787876130e163ffffffff16565b6000612056600089898080601f016020809104026020016040519081016040528093929190818152602001838380828437600081840152601f19601f8201169050808301925050505050505061336090919063ffffffff16565b905061206f8162ffffff1916613399909063ffffffff16565b60006120888262ffffff1916613608909063ffffffff16565b905073__$8c977731748aa4504deed57239565df533$__635ced058e826040518263ffffffff1660e01b8152600401808260001916815260200191505060206040518083038186803b1580156120de5760006000fd5b505af41580156120f3573d600060003e3d6000fd5b505050506040513d602081101561210a5760006000fd5b810190808051906020019092919050505073ffffffffffffffffffffffffffffffffffffffff163373ffffffffffffffffffffffffffffffffffffffff161415156121a0576040517f08c379a0000000000000000000000000000000000000000000000000000000008152600401808060200182810382526021815260200180614f6a6021913960400191505060405180910390fd5b60006121b98362ffffff1916613558909063ffffffff16565b90507f000000000000000000000000000000000000000000000000000000000000000063ffffffff168163ffffffff16141515612241576040517f08c379a000000000000000000000000000000000000000000000000000000000815260040180806020018281038252602c815260200180614f3e602c913960400191505060405180910390fd5b600061225a8462ffffff19166134ce909063ffffffff16565b905060006122758562ffffff19166136e5909063ffffffff16565b905060006122908662ffffff1916613586909063ffffffff16565b90506122a783838988858e8e612d6d63ffffffff16565b5050505050505b5b50505050505050565b600760009054906101000a900473ffffffffffffffffffffffffffffffffffffffff1673ffffffffffffffffffffffffffffffffffffffff163373ffffffffffffffffffffffffffffffffffffffff16141515612380576040517f08c379a000000000000000000000000000000000000000000000000000000000815260040180806020018281038252601b8152602001807f43616c6c6572206e6f74206174746573746572206d616e61676572000000000081526020015060200191505060405180910390fd5b600081141515156123fc576040517f08c379a000000000000000000000000000000000000000000000000000000000815260040180806020018281038252601b8152602001807f496e76616c6964207369676e6174757265207468726573686f6c64000000000081526020015060200191505060405180910390fd5b61241160056000506130be909063ffffffff16565b811115151561248b576040517f08c379a00000000000000000000000000000000000000000000000000000000081526004018080602001828103825260208152602001807f4e6577207369676e6174757265207468726573686f6c6420746f6f206869676881526020015060200191505060405180910390fd5b600460005054811415151561250b576040517f08c379a000000000000000000000000000000000000000000000000000000000815260040180806020018281038252601f8152602001807f5369676e6174757265207468726573686f6c6420616c7265616479207365740081526020015060200191505060405180910390fd5b600060046000505490508160046000508190909055507f149153f58b4da003a8cfd4523709a202402182cb5aa335046911277a1be6eede81600460005054604051808381526020018281526020019250505060405180910390a1505b5b50565b600061258482600560005061383f90919063ffffffff16565b905061258b565b919050565b61259e612fbd63ffffffff16565b600073ffffffffffffffffffffffffffffffffffffffff168173ffffffffffffffffffffffffffffffffffffffff1614151515612646576040517f08c379a00000000000000000000000000000000000000000000000000000000081526004018080602001828103825260208152602001807f496e76616c6964206174746573746572206d616e61676572206164647265737381526020015060200191505060405180910390fd5b6000600760009054906101000a900473ffffffffffffffffffffffffffffffffffffffff16905061267c8261386763ffffffff16565b8173ffffffffffffffffffffffffffffffffffffffff168173ffffffffffffffffffffffffffffffffffffffff167f0cee1b7ae04f3c788dd3a46c6fa677eb95b913611ef7ab59524fdc09d346021960405160405180910390a3505b5b50565b6000600160009054906101000a900473ffffffffffffffffffffffffffffffffffffffff169050612708565b90565b612719612fbd63ffffffff16565b80600160006101000a81548173ffffffffffffffffffffffffffffffffffffffff021916908373ffffffffffffffffffffffffffffffffffffffff1602179055508073ffffffffffffffffffffffffffffffffffffffff1661277f611d8e63ffffffff16565b73ffffffffffffffffffffffffffffffffffffffff167f38d16b8cac22d99fc7c124b9cd0de2d3fa1faef420bfe791d8c362d765e2270060405160405180910390a35b5b50565b6000600260149054906101000a900460ff16151515612850576040517f08c379a00000000000000000000000000000000000000000000000000000000081526004018080602001828103825260108152602001807f5061757361626c653a207061757365640000000000000000000000000000000081526020015060200191505060405180910390fd5b600060001b600019168460001916141515156128b7576040517f08c379a0000000000000000000000000000000000000000000000000000000008152600401808060200182810382526022815260200180614e816022913960400191505060405180910390fd5b60006128c7612d0163ffffffff16565b9050600073__$8c977731748aa4504deed57239565df533$__6382c947b7336040518263ffffffff1660e01b8152600401808273ffffffffffffffffffffffffffffffffffffffff16815260200191505060206040518083038186803b1580156129315760006000fd5b505af4158015612946573d600060003e3d6000fd5b505050506040513d602081101561295d5760006000fd5b8101908080519060200190929190505050905061298588888884868a8a612d6d63ffffffff16565b81925050506129915650505b5b95945050505050565b600760009054906101000a900473ffffffffffffffffffffffffffffffffffffffff1673ffffffffffffffffffffffffffffffffffffffff163373ffffffffffffffffffffffffffffffffffffffff16141515612a63576040517f08c379a000000000000000000000000000000000000000000000000000000000815260040180806020018281038252601b8152602001807f43616c6c6572206e6f74206174746573746572206d616e61676572000000000081526020015060200191505060405180910390fd5b600073ffffffffffffffffffffffffffffffffffffffff168173ffffffffffffffffffffffffffffffffffffffff1614151515612b0b576040517f08c379a000000000000000000000000000000000000000000000000000000000815260040180806020018281038252601c8152602001807f4e6577206174746573746572206d757374206265206e6f6e7a65726f0000000081526020015060200191505060405180910390fd5b612b22816005600050612cc390919063ffffffff16565b1515612b99576040517f08c379a00000000000000000000000000000000000000000000000000000000081526004018080602001828103825260188152602001807f417474657374657220616c726561647920656e61626c6564000000000000000081526020015060200191505060405180910390fd5b8073ffffffffffffffffffffffffffffffffffffffff167f5b99bab45c72ce67e89466dbc47480b9c1fde1400e7268bbf463b8354ee4653f60405160405180910390a25b5b50565b600a6000506020528060005260406000206000915090505481565b6000600060009054906101000a900473ffffffffffffffffffffffffffffffffffffffff16905081600060006101000a81548173ffffffffffffffffffffffffffffffffffffffff021916908373ffffffffffffffffffffffffffffffffffffffff1602179055508173ffffffffffffffffffffffffffffffffffffffff168173ffffffffffffffffffffffffffffffffffffffff167f8be0079c531659141344cd1fd0a4f28419497f9722a3daafe3b4186f6b6457e060405160405180910390a3505b50565b6000612cf4836000016000508373ffffffffffffffffffffffffffffffffffffffff1660001b6138ac63ffffffff16565b9050612cfb565b92915050565b60006000600960009054906101000a900467ffffffffffffffff1690506001600960009054906101000a900467ffffffffffffffff1601600960006101000a81548167ffffffffffffffff021916908367ffffffffffffffff16021790555080915050612d6a56505b90565b6008600050548282905011151515612df0576040517f08c379a000000000000000000000000000000000000000000000000000000000815260040180806020018281038252601d8152602001807f4d65737361676520626f64792065786365656473206d61782073697a6500000081526020015060200191505060405180910390fd5b600060001b60001916866000191614151515612e77576040517f08c379a00000000000000000000000000000000000000000000000000000000081526004018080602001828103825260198152602001807f526563697069656e74206d757374206265206e6f6e7a65726f0000000000000081526020015060200191505060405180910390fd5b6000612f137f00000000000000000000000000000000000000000000000000000000000000007f00000000000000000000000000000000000000000000000000000000000000008a87898c8c8a8a8080601f016020809104026020016040519081016040528093929190818152602001838380828437600081840152601f19601f8201169050808301925050505050505061394b63ffffffff16565b90507f8c5261668696ce22758910d05bab8f186d6eb247ceac2af2e82c7dc17669b036816040518080602001828103825283818151815260200191508051906020019080838360005b83811015612f785780820151818401525b602081019050612f5c565b50505050905090810190601f168015612fa55780820380516001836020036101000a031916815260200191505b509250505060405180910390a1505b50505050505050565b612fcb61371363ffffffff16565b73ffffffffffffffffffffffffffffffffffffffff16612fef611d8e63ffffffff16565b73ffffffffffffffffffffffffffffffffffffffff1614151561307d576040517f08c379a00000000000000000000000000000000000000000000000000000000081526004018080602001828103825260208152602001807f4f776e61626c653a2063616c6c6572206973206e6f7420746865206f776e657281526020015060200191505060405180910390fd5b5b565b60006130b1836000016000508373ffffffffffffffffffffffffffffffffffffffff1660001b613a3a63ffffffff16565b90506130b8565b92915050565b60006130d582600001600050613b8563ffffffff16565b90506130dc565b919050565b60046000505460410282829050141515613166576040517f08c379a000000000000000000000000000000000000000000000000000000000815260040180806020018281038252601a8152602001807f496e76616c6964206174746573746174696f6e206c656e67746800000000000081526020015060200191505060405180910390fd5b600060009050600085856040518083838082843780830192505050925050506040518091039020905060005b6004600050548110156133565760008585604184029060416041860201926131bc93929190614dfe565b8080601f016020809104026020016040519081016040528093929190818152602001838380828437600081840152601f19601f82011690508083019250505050505050905060006132138483613b9e63ffffffff16565b90508473ffffffffffffffffffffffffffffffffffffffff168173ffffffffffffffffffffffffffffffffffffffff161115156132bb576040517f08c379a000000000000000000000000000000000000000000000000000000000815260040180806020018281038252601f8152602001807f496e76616c6964207369676e6174757265206f72646572206f7220647570650081526020015060200191505060405180910390fd5b6132ca81611c3863ffffffff16565b1515613341576040517f08c379a000000000000000000000000000000000000000000000000000000000815260040180806020018281038252601f8152602001807f496e76616c6964207369676e61747572653a206e6f742061747465737465720081526020015060200191505060405180910390fd5b809450845050505b8060010190508050613192565b5050505b50505050565b600060008351905060006020850190506133888464ffffffffff168284613bbd63ffffffff16565b925050506133935650505b92915050565b6133b08162ffffff1916613c35909063ffffffff16565b1515613427576040517f08c379a00000000000000000000000000000000000000000000000000000000081526004018080602001828103825260118152602001807f4d616c666f726d6564206d65737361676500000000000000000000000000000081526020015060200191505060405180910390fd5b607460ff166134438262ffffff1916613c84909063ffffffff16565b6bffffffffffffffffffffffff16101515156134ca576040517f08c379a000000000000000000000000000000000000000000000000000000000815260040180806020018281038252601a8152602001807f496e76616c6964206d6573736167653a20746f6f2073686f727400000000000081526020015060200191505060405180910390fd5b5b50565b60006134f0600860ff1660048462ffffff1916613ca69092919063ffffffff16565b90506134f7565b919050565b600061351e605460ff1660208462ffffff1916613cd69092919063ffffffff16565b9050613525565b919050565b600061354c600060ff1660048462ffffff1916613ca69092919063ffffffff16565b9050613553565b919050565b600061357a600460ff1660048462ffffff1916613ca69092919063ffffffff16565b9050613581565b919050565b60006135a8600c60ff1660088462ffffff1916613ca69092919063ffffffff16565b90506135af565b919050565b60008282604051602001808363ffffffff1660e01b81526004018267ffffffffffffffff1660c01b815260080192505050604051602081830303815290604052805190602001209050613602565b92915050565b600061362a601460ff1660208462ffffff1916613cd69092919063ffffffff16565b9050613631565b919050565b6000613684607460ff16607460ff1661365c8562ffffff1916613c84909063ffffffff16565b036bffffffffffffffffffffffff1660008562ffffff1916613ec6909392919063ffffffff16565b905061368b565b919050565b6060600060006136a584613c8463ffffffff16565b6bffffffffffffffffffffffff16905060405191508192506136d08460208401613f8c63ffffffff16565b5060208183010160405280825250505b919050565b6000613707603460ff1660208462ffffff1916613cd69092919063ffffffff16565b905061370e565b919050565b600033905061371d565b90565b600160006101000a81549073ffffffffffffffffffffffffffffffffffffffff021916905561375481612bfc63ffffffff16565b5b50565b6000613789836000016000508373ffffffffffffffffffffffffffffffffffffffff1660001b6140ee63ffffffff16565b9050613790565b92915050565b6138398363a9059cbb60e01b8484604051602401808373ffffffffffffffffffffffffffffffffffffffff16815260200182815260200192505050604051602081830303815290604052907bffffffffffffffffffffffffffffffffffffffffffffffffffffffff19166020820180517bffffffffffffffffffffffffffffffffffffffffffffffffffffffff838183161783525050505061412563ffffffff16565b5b505050565b6000613857836000016000508361421b63ffffffff16565b60001c9050613861565b92915050565b80600760006101000a81548173ffffffffffffffffffffffffffffffffffffffff021916908373ffffffffffffffffffffffffffffffffffffffff1602179055505b50565b60006138be83836140ee63ffffffff16565b151561393b578260000160005082908060018154018082558091505060019003906000526020600020900160005b9091909190915090600019169055826000016000508054905083600101600050600084600019166000191681526020019081526020016000206000508190909055506001905061394556613944565b60009050613945565b5b92915050565b60608888888888888888604051602001808963ffffffff1660e01b81526004018863ffffffff1660e01b81526004018763ffffffff1660e01b81526004018667ffffffffffffffff1660c01b815260080185600019168152602001846000191681526020018360001916815260200182805190602001908083835b6020831015156139ec57805182525b6020820191506020810190506020830392506139c6565b6001836020036101000a038019825116818451168082178552505050505050905001985050505050505050506040516020818303038152906040529050613a2e565b98975050505050505050565b600060008360010160005060008460001916600019168152602001908152602001600020600050549050600081141515613b7357600060018203905060006001866000016000508054905003905060008660000160005082815481101515613a9e57fe5b906000526020600020900160005b50549050808760000160005084815481101515613ac557fe5b906000526020600020900160005b5081909060001916905550600183018760010160005060008360001916600019168152602001908152602001600020600050819090905550866000016000508054801515613b1d57fe5b600190038181906000526020600020900160005b506000905590558660010160005060008760001916600019168152602001908152602001600020600050600090556001945050505050613b7f56505050613b7d565b6000915050613b7f565b505b92915050565b600081600001600050805490509050613b99565b919050565b6000613bb083836142b263ffffffff16565b9050613bb7565b92915050565b60006000613bd4838561437390919063ffffffff16565b9050604051811115613be557600090505b6000811415613c17577fffffffffffffffffffffffffffffffffffffffffffffffffffffffffff000000915050613c2e565b613c2885858561440563ffffffff16565b91508150505b9392505050565b600064ffffffffff613c4c8361442763ffffffff16565b64ffffffffff161415613c625760009050613c7f565b6000613c738361443563ffffffff16565b90506040518111199150505b919050565b600060006bffffffffffffffffffffffff9050808360181c169150505b919050565b60006008826020030260ff16613cc3858585613cd663ffffffff16565b60001c901c9050613ccf565b9392505050565b600060008260ff161415613cf057600060001b9050613ebf565b613cff84613c8463ffffffff16565b6bffffffffffffffffffffffff16613d238360ff168561437390919063ffffffff16565b1115613e1857613d76613d3b8561447063ffffffff16565b6bffffffffffffffffffffffff16613d5886613c8463ffffffff16565b6bffffffffffffffffffffffff16858560ff1661449263ffffffff16565b6040517f08c379a00000000000000000000000000000000000000000000000000000000081526004018080602001828103825283818151815260200191508051906020019080838360005b83811015613ddd5780820151818401525b602081019050613dc1565b50505050905090810190601f168015613e0a5780820380516001836020036101000a031916815260200191505b509250505060405180910390fd5b60208260ff1611151515613e77576040517f08c379a000000000000000000000000000000000000000000000000000000000815260040180806020018281038252603a815260200180614ff2603a913960400191505060405180910390fd5b60006008830290506000613e908661447063ffffffff16565b6bffffffffffffffffffffffff1690506000613eb1836145f063ffffffff16565b905080868301511693505050505b9392505050565b60006000613ed98661447063ffffffff16565b6bffffffffffffffffffffffff169050613ef88661443563ffffffff16565b613f1d85613f0f888561437390919063ffffffff16565b61437390919063ffffffff16565b1115613f4c577fffffffffffffffffffffffffffffffffffffffffffffffffffffffffff000000915050613f84565b613f5f858261437390919063ffffffff16565b90508050613f7b8364ffffffffff168286613bbd63ffffffff16565b915050613f8456505b949350505050565b6000613f9d8361462063ffffffff16565b1515613ff4576040517f08c379a00000000000000000000000000000000000000000000000000000000081526004018080602001828103825260288152602001806150786028913960400191505060405180910390fd5b61400383613c3563ffffffff16565b151561405a576040517f08c379a000000000000000000000000000000000000000000000000000000000815260040180806020018281038252602b8152602001806150a0602b913960400191505060405180910390fd5b600061406b84613c8463ffffffff16565b6bffffffffffffffffffffffff169050600061408c8561447063ffffffff16565b6bffffffffffffffffffffffff16905060006040519050848111156140b15760206060fd5b8285848460045afa506140e06140cc8761442763ffffffff16565b64ffffffffff16868561440563ffffffff16565b935083505050505b92915050565b600060008360010160005060008460001916600019168152602001908152602001600020600050541415905061411f565b92915050565b600061418a826040518060400160405280602081526020017f5361666545524332303a206c6f772d6c6576656c2063616c6c206661696c65648152602001508573ffffffffffffffffffffffffffffffffffffffff1661463e9092919063ffffffff16565b9050600081511115614215578080602001905160208110156141ac5760006000fd5b81019080805190602001909291905050501515614214576040517f08c379a000000000000000000000000000000000000000000000000000000000815260040180806020018281038252602a81526020018061504e602a913960400191505060405180910390fd5b5b505b5050565b6000818360000160005080549050111515614281576040517f08c379a0000000000000000000000000000000000000000000000000000000008152600401808060200182810382526022815260200180614e376022913960400191505060405180910390fd5b826000016000508281548110151561429557fe5b906000526020600020900160005b505490506142ac565b92915050565b600060418251141515614330576040517f08c379a000000000000000000000000000000000000000000000000000000000815260040180806020018281038252601f8152602001807f45434453413a20696e76616c6964207369676e6174757265206c656e6774680081526020015060200191505060405180910390fd5b6000600060006020850151925060408501519150606085015160001a90506143608682858561466163ffffffff16565b935050505061436d565050505b92915050565b6000818301905080508281101515156143f7576040517f08c379a00000000000000000000000000000000000000000000000000000000081526004018080602001828103825260198152602001807f4f766572666c6f7720647572696e67206164646974696f6e2e0000000000000081526020015060200191505060405180910390fd5b8090506143ff565b92915050565b600083811760601b905082811760601b905081811760181b90505b9392505050565b60008160d81c90505b919050565b600061444682613c8463ffffffff16565b6144558361447063ffffffff16565b016bffffffffffffffffffffffff16905061446b565b919050565b600060006bffffffffffffffffffffffff9050808360781c169150505b919050565b606060006144a58661487c63ffffffff16565b91505060006144b98661487c63ffffffff16565b91505060006144cd8661487c63ffffffff16565b91505060006144e18661487c63ffffffff16565b9150508383838360405160200180806150cb603591396035018565ffffffffffff1660d01b8152600601807f2077697468206c656e6774682030780000000000000000000000000000000000815260200150600f018465ffffffffffff1660d01b815260060180614f8b602191396021018365ffffffffffff1660d01b8152600601807f2077697468206c656e6774682030780000000000000000000000000000000000815260200150600f018265ffffffffffff1660d01b8152600601807f2e0000000000000000000000000000000000000000000000000000000000000081526020015060010194505050505060405160208183030381529060405294508450505050505b949350505050565b60007f8000000000000000000000000000000000000000000000000000000000000000600183031d90505b919050565b60006146318261494863ffffffff16565b159050614639565b919050565b6060614653848460008561498563ffffffff16565b905061465a565b9392505050565b60007f7fffffffffffffffffffffffffffffff5d576e7357a4501ddfe92f46681b20a08260001c111515156146e1576040517f08c379a0000000000000000000000000000000000000000000000000000000008152600401808060200182810382526022815260200180614ef66022913960400191505060405180910390fd5b601b8460ff1614806146f65750601c8460ff16145b151561474d576040517f08c379a0000000000000000000000000000000000000000000000000000000008152600401808060200182810382526022815260200180614fac6022913960400191505060405180910390fd5b60006001868686866040516000815260200160405260405180856000191681526020018460ff16815260200183600019168152602001826000191681526020019450505050506020604051602081039080840390855afa1580156147b6573d600060003e3d6000fd5b505050602060405103519050600073ffffffffffffffffffffffffffffffffffffffff168173ffffffffffffffffffffffffffffffffffffffff161415151561486a576040517f08c379a00000000000000000000000000000000000000000000000000000000081526004018080602001828103825260188152602001807f45434453413a20696e76616c6964207369676e6174757265000000000000000081526020015060200191505060405180910390fd5b8091505061487456505b949350505050565b600060006000601f90505b600f8160ff1611156148e05760006008820260ff1685901c90506148b081614b4b63ffffffff16565b61ffff1684179350835060108260ff161415156148d157601084901b935083505b505b6001810390508050614887565b506000600f90505b60ff8160ff1610156149415760006008820260ff1685901c905061491181614b4b63ffffffff16565b61ffff1683179250825060008260ff1614151561493257601083901b925082505b505b60018103905080506148e8565b505b915091565b60007fffffffffffffffffffffffffffffffffffffffffffffffffffffffffff00000062ffffff19168262ffffff1916149050614980565b919050565b60608247101515156149e2576040517f08c379a0000000000000000000000000000000000000000000000000000000008152600401808060200182810382526026815260200180614f186026913960400191505060405180910390fd5b6149f185614b9763ffffffff16565b1515614a68576040517f08c379a000000000000000000000000000000000000000000000000000000000815260040180806020018281038252601d8152602001807f416464726573733a2063616c6c20746f206e6f6e2d636f6e747261637400000081526020015060200191505060405180910390fd5b600060008673ffffffffffffffffffffffffffffffffffffffff1685876040518082805190602001908083835b602083101515614abb57805182525b602082019150602081019050602083039250614a95565b6001836020036101000a03801982511681845116808217855250505050505090500191505060006040518083038185875af1925050503d8060008114614b1d576040519150601f19603f3d011682016040523d82523d6000602084013e614b22565b606091505b5091509150614b38828286614bb163ffffffff16565b92505050614b435650505b949350505050565b6000614b6360048360ff16901c614c8963ffffffff16565b60ff1681179050805060088161ffff16901b90508050614b8882614c8963ffffffff16565b60ff168117905080505b919050565b60006000823b905060008111915050614bac56505b919050565b60608315614bc557829050614c8256614c81565b600083511115614bdd5782518084602001fd50614c80565b816040517f08c379a00000000000000000000000000000000000000000000000000000000081526004018080602001828103825283818151815260200191508051906020019080838360005b83811015614c455780820151818401525b602081019050614c29565b50505050905090810190601f168015614c725780820380516001836020036101000a031916815260200191505b509250505060405180910390fd5b5b5b9392505050565b6000600060f08317905060f08160ff161415614ca9576030915050614df5565b60f18160ff161415614cbf576031915050614df5565b60f28160ff161415614cd5576032915050614df5565b60f38160ff161415614ceb576033915050614df5565b60f48160ff161415614d01576034915050614df5565b60f58160ff161415614d17576035915050614df5565b60f68160ff161415614d2d576036915050614df5565b60f78160ff161415614d43576037915050614df5565b60f88160ff161415614d59576038915050614df5565b60f98160ff161415614d6f576039915050614df5565b60fa8160ff161415614d85576061915050614df5565b60fb8160ff161415614d9b576062915050614df5565b60fc8160ff161415614db1576063915050614df5565b60fd8160ff161415614dc7576064915050614df5565b60fe8160ff161415614ddd576065915050614df5565b60ff8160ff161415614df3576066915050614df5565b505b91905056614e35565b6000600085851115614e105760006000fd5b83861115614e1e5760006000fd5b600185028301915084860390505b94509492505050565bfe456e756d657261626c655365743a20696e646578206f7574206f6620626f756e64735061757361626c653a206e65772070617573657220697320746865207a65726f206164647265737344657374696e6174696f6e2063616c6c6572206d757374206265206e6f6e7a65726f4f776e61626c6532537465703a2063616c6c6572206973206e6f7420746865206e6577206f776e6572526573637561626c653a206e6577207265736375657220697320746865207a65726f206164647265737345434453413a20696e76616c6964207369676e6174757265202773272076616c7565416464726573733a20696e73756666696369656e742062616c616e636520666f722063616c6c4d657373616765206e6f74206f726967696e616c6c792073656e742066726f6d207468697320646f6d61696e53656e646572206e6f74207065726d697474656420746f20757365206e6f6e63652e20417474656d7074656420746f20696e646578206174206f666673657420307845434453413a20696e76616c6964207369676e6174757265202776272076616c7565526573637561626c653a2063616c6c6572206973206e6f7420746865207265736375657254797065644d656d566965772f696e646578202d20417474656d7074656420746f20696e646578206d6f7265207468616e2033322062797465735061757361626c653a2063616c6c6572206973206e6f7420746865207061757365725361666545524332303a204552433230206f7065726174696f6e20646964206e6f74207375636365656454797065644d656d566965772f636f7079546f202d204e756c6c20706f696e74657220646572656654797065644d656d566965772f636f7079546f202d20496e76616c696420706f696e74657220646572656654797065644d656d566965772f696e646578202d204f76657272616e2074686520766965772e20536c696365206973206174203078a26469706673582212208d05991dc3d2061b2d115e724cd7de74017076f37b72f51c6f3ea366daecd0ec64736f6c63430007060033","linkReferences":{"src/messages/Message.sol":{"Message":[{"start":4595,"length":20},{"start":6956,"length":20},{"start":7806,"length":20},{"start":9920,"length":20},{"start":12033,"length":20}]}}},"methodIdentifiers":{"acceptOwnership()":"79ba5097","attesterManager()":"9b0d94b7","disableAttester(address)":"2d025080","enableAttester(address)":"fae36879","getEnabledAttester(uint256)":"beb673d8","getNumEnabledAttesters()":"51079a53","isEnabledAttester(address)":"7af82f60","localDomain()":"8d3638f4","maxMessageBodySize()":"af47b9bb","nextAvailableNonce()":"8371744e","owner()":"8da5cb5b","pause()":"8456cb59","paused()":"5c975abb","pauser()":"9fd0506d","pendingOwner()":"e30c3978","receiveMessage(bytes,bytes)":"57ecfd28","replaceMessage(bytes,bytes,bytes,bytes32)":"b857b774","rescueERC20(address,address,uint256)":"b2118a8d","rescuer()":"38a63183","sendMessage(uint32,bytes32,bytes)":"0ba469bc","sendMessageWithCaller(uint32,bytes32,bytes32,bytes)":"f7259a75","setMaxMessageBodySize(uint256)":"92492c68","setSignatureThreshold(uint256)":"bbde5374","signatureThreshold()":"a82f2e26","transferOwnership(address)":"f2fde38b","unpause()":"3f4ba83a","updateAttesterManager(address)":"de7769d4","updatePauser(address)":"554bab3c","updateRescuer(address)":"2ab60045","usedNonces(bytes32)":"feb61724","version()":"54fd4d50"},"id":16}