{"abi":[{"type":"constructor","inputs":[{"name":"attester","type":"address","internalType":"address"}],"stateMutability":"nonpayable"},{"type":"function","name":"acceptOwnership","inputs":[],"outputs":[],"stateMutability":"nonpayable"},{"type":"function","name":"attesterManager","inputs":[],"outputs":[{"name":"","type":"address","internalType":"address"}],"stateMutability":"view"},{"type":"function","name":"disableAttester","inputs":[{"name":"attester","type":"address","internalType":"address"}],"outputs":[],"stateMutability":"nonpayable"},{"type":"function","name":"enableAttester","inputs":[{"name":"newAttester","type":"address","internalType":"address"}],"outputs":[],"stateMutability":"nonpayable"},{"type":"function","name":"getEnabledAttester","inputs":[{"name":"index","type":"uint256","internalType":"uint256"}],"outputs":[{"name":"","type":"address","internalType":"address"}],"stateMutability":"view"},{"type":"function","name":"getNumEnabledAttesters","inputs":[],"outputs":[{"name":"","type":"uint256","internalType":"uint256"}],"stateMutability":"view"},{"type":"function","name":"isEnabledAttester","inputs":[{"name":"attester","type":"address","internalType":"address"}],"outputs":[{"name":"","type":"bool","internalType":"bool"}],"stateMutability":"view"},{"type":"function","name":"owner","inputs":[],"outputs":[{"name":"","type":"address","internalType":"address"}],"stateMutability":"view"},{"type":"function","name":"pendingOwner","inputs":[],"outputs":[{"name":"","type":"address","internalType":"address"}],"stateMutability":"view"},{"type":"function","name":"setSignatureThreshold","inputs":[{"name":"newSignatureThreshold","type":"uint256","internalType":"uint256"}],"outputs":[],"stateMutability":"nonpayable"},{"type":"function","name":"signatureThreshold","inputs":[],"outputs":[{"name":"","type":"uint256","internalType":"uint256"}],"stateMutability":"view"},{"type":"function","name":"transferOwnership","inputs":[{"name":"newOwner","type":"address","internalType":"address"}],"outputs":[],"stateMutability":"nonpayable"},{"type":"function","name":"updateAttesterManager","inputs":[{"name":"newAttesterManager","type":"address","internalType":"address"}],"outputs":[],"stateMutability":"nonpayable"},{"type":"event","name":"AttesterDisabled","inputs":[{"name":"attester","type":"address","indexed":true,"internalType":"address"}],"anonymous":false},{"type":"event","name":"AttesterEnabled","inputs":[{"name":"attester","type":"address","indexed":true,"internalType":"address"}],"anonymous":false},{"type":"event","name":"AttesterManagerUpdated","inputs":[{"name":"previousAttesterManager","type":"address","indexed":true,"internalType":"address"},{"name":"newAttesterManager","type":"address","indexed":true,"internalType":"address"}],"anonymous":false},{"type":"event","name":"OwnershipTransferStarted","inputs":[{"name":"previousOwner","type":"address","indexed":true,"internalType":"address"},{"name":"newOwner","type":"address","indexed":true,"internalType":"address"}],"anonymous":false},{"type":"event","name":"OwnershipTransferred","inputs":[{"name":"previousOwner","type":"address","indexed":true,"internalType":"address"},{"name":"newOwner","type":"address","indexed":true,"internalType":"address"}],"anonymous":false},{"type":"event","name":"SignatureThresholdUpdated","inputs":[{"name":"oldSignatureThreshold","type":"uint256","indexed":false,"internalType":"uint256"},{"name":"newSignatureThreshold","type":"uint256","indexed":false,"internalType":"uint256"}],"anonymous":false}],"bytecode":{"object":"0x6080604052348015620000125760006000fd5b5060405162001afd38038062001afd83398181016040526020811015620000395760006000fd5b81019080805190602001909291905050505b5b6200006c62000060620000a460201b60201c565b620000b260201b60201c565b5b6200007e33620000f160201b60201c565b600160026000508190909055506200009c816200013660201b60201c565b5b506200056b565b6000339050620000af565b90565b600160006101000a81549073ffffffffffffffffffffffffffffffffffffffff0219169055620000ed816200038660201b62000f171760201c565b5b50565b80600560006101000a81548173ffffffffffffffffffffffffffffffffffffffff021916908373ffffffffffffffffffffffffffffffffffffffff1602179055505b50565b600560009054906101000a900473ffffffffffffffffffffffffffffffffffffffff1673ffffffffffffffffffffffffffffffffffffffff163373ffffffffffffffffffffffffffffffffffffffff16141515620001ff576040517f08c379a000000000000000000000000000000000000000000000000000000000815260040180806020018281038252601b8152602001807f43616c6c6572206e6f74206174746573746572206d616e61676572000000000081526020015060200191505060405180910390fd5b600073ffffffffffffffffffffffffffffffffffffffff168173ffffffffffffffffffffffffffffffffffffffff1614151515620002a8576040517f08c379a000000000000000000000000000000000000000000000000000000000815260040180806020018281038252601c8152602001807f4e6577206174746573746572206d757374206265206e6f6e7a65726f0000000081526020015060200191505060405180910390fd5b620002c68160036000506200044d60201b62000fde1790919060201c565b15156200033e576040517f08c379a00000000000000000000000000000000000000000000000000000000081526004018080602001828103825260188152602001807f417474657374657220616c726561647920656e61626c6564000000000000000081526020015060200191505060405180910390fd5b8073ffffffffffffffffffffffffffffffffffffffff167f5b99bab45c72ce67e89466dbc47480b9c1fde1400e7268bbf463b8354ee4653f60405160405180910390a25b5b50565b6000600060009054906101000a900473ffffffffffffffffffffffffffffffffffffffff16905081600060006101000a81548173ffffffffffffffffffffffffffffffffffffffff021916908373ffffffffffffffffffffffffffffffffffffffff1602179055508173ffffffffffffffffffffffffffffffffffffffff168173ffffffffffffffffffffffffffffffffffffffff167f8be0079c531659141344cd1fd0a4f28419497f9722a3daafe3b4186f6b6457e060405160405180910390a3505b50565b600062000480836000016000508373ffffffffffffffffffffffffffffffffffffffff1660001b6200048e60201b60201c565b905062000488565b92915050565b6000620004a283836200053360201b60201c565b151562000522578260000160005082908060018154018082558091505060019003906000526020600020900160005b909190919091509060001916905582600001600050805490508360010160005060008460001916600019168152602001908152602001600020600050819090905550600190506200052d566200052c565b600090506200052d565b5b92915050565b600060008360010160005060008460001916600019168152602001908152602001600020600050541415905062000565565b92915050565b611582806200057b6000396000f3fe60806040523480156100115760006000fd5b50600436106100d45760003560e01c8063a82f2e261161008d578063de7769d411610067578063de7769d4146102b0578063e30c3978146102f5578063f2fde38b14610329578063fae368791461036e576100d4565b8063a82f2e261461020a578063bbde537414610228578063beb673d814610257576100d4565b80632d025080146100da57806351079a531461011f57806379ba50971461013d5780637af82f60146101475780638da5cb5b146101a25780639b0d94b7146101d6576100d4565b60006000fd5b61011d600480360360208110156100f15760006000fd5b81019080803573ffffffffffffffffffffffffffffffffffffffff1690602001909291905050506103b3565b005b61012761065e565b6040518082815260200191505060405180910390f35b61014561067f565b005b61018a6004803603602081101561015e5760006000fd5b81019080803573ffffffffffffffffffffffffffffffffffffffff169060200190929190505050610737565b60405180821515815260200191505060405180910390f35b6101aa61075c565b604051808273ffffffffffffffffffffffffffffffffffffffff16815260200191505060405180910390f35b6101de61078b565b604051808273ffffffffffffffffffffffffffffffffffffffff16815260200191505060405180910390f35b6102126107ba565b6040518082815260200191505060405180910390f35b6102556004803603602081101561023f5760006000fd5b81019080803590602001909291905050506107c3565b005b6102846004803603602081101561026e5760006000fd5b8101908080359060200190929190505050610a76565b604051808273ffffffffffffffffffffffffffffffffffffffff16815260200191505060405180910390f35b6102f3600480360360208110156102c75760006000fd5b81019080803573ffffffffffffffffffffffffffffffffffffffff169060200190929190505050610a9b565b005b6102fd610be7565b604051808273ffffffffffffffffffffffffffffffffffffffff16815260200191505060405180910390f35b61036c600480360360208110156103405760006000fd5b81019080803573ffffffffffffffffffffffffffffffffffffffff169060200190929190505050610c16565b005b6103b1600480360360208110156103855760006000fd5b81019080803573ffffffffffffffffffffffffffffffffffffffff169060200190929190505050610cd1565b005b600560009054906101000a900473ffffffffffffffffffffffffffffffffffffffff1673ffffffffffffffffffffffffffffffffffffffff163373ffffffffffffffffffffffffffffffffffffffff1614151561047b576040517f08c379a000000000000000000000000000000000000000000000000000000000815260040180806020018281038252601b8152602001807f43616c6c6572206e6f74206174746573746572206d616e61676572000000000081526020015060200191505060405180910390fd5b600061048b61065e63ffffffff16565b9050600181111515610508576040517f08c379a00000000000000000000000000000000000000000000000000000000081526004018080602001828103825260198152602001807f546f6f2066657720656e61626c6564206174746573746572730000000000000081526020015060200191505060405180910390fd5b60026000505481111515610587576040517f08c379a000000000000000000000000000000000000000000000000000000000815260040180806020018281038252601e8152602001807f5369676e6174757265207468726573686f6c6420697320746f6f206c6f77000081526020015060200191505060405180910390fd5b61059e82600360005061101c90919063ffffffff16565b1515610615576040517f08c379a00000000000000000000000000000000000000000000000000000000081526004018080602001828103825260198152602001807f417474657374657220616c72656164792064697361626c65640000000000000081526020015060200191505060405180910390fd5b8173ffffffffffffffffffffffffffffffffffffffff167f78e573a18c75957b7cadaab01511aa1c19a659f06ecf53e01de37ed92d3261fc60405160405180910390a2505b5b50565b6000610675600360005061105a909063ffffffff16565b905061067c565b90565b600061068f61107d63ffffffff16565b90508073ffffffffffffffffffffffffffffffffffffffff166106b6610be763ffffffff16565b73ffffffffffffffffffffffffffffffffffffffff16141515610724576040517f08c379a00000000000000000000000000000000000000000000000000000000081526004018080602001828103825260298152602001806115246029913960400191505060405180910390fd5b6107338161108a63ffffffff16565b505b565b60006107508260036000506110c290919063ffffffff16565b9050610757565b919050565b6000600060009054906101000a900473ffffffffffffffffffffffffffffffffffffffff169050610788565b90565b6000600560009054906101000a900473ffffffffffffffffffffffffffffffffffffffff1690506107b7565b90565b60026000505481565b600560009054906101000a900473ffffffffffffffffffffffffffffffffffffffff1673ffffffffffffffffffffffffffffffffffffffff163373ffffffffffffffffffffffffffffffffffffffff1614151561088b576040517f08c379a000000000000000000000000000000000000000000000000000000000815260040180806020018281038252601b8152602001807f43616c6c6572206e6f74206174746573746572206d616e61676572000000000081526020015060200191505060405180910390fd5b60008114151515610907576040517f08c379a000000000000000000000000000000000000000000000000000000000815260040180806020018281038252601b8152602001807f496e76616c6964207369676e6174757265207468726573686f6c64000000000081526020015060200191505060405180910390fd5b61091c600360005061105a909063ffffffff16565b8111151515610996576040517f08c379a00000000000000000000000000000000000000000000000000000000081526004018080602001828103825260208152602001807f4e6577207369676e6174757265207468726573686f6c6420746f6f206869676881526020015060200191505060405180910390fd5b6002600050548114151515610a16576040517f08c379a000000000000000000000000000000000000000000000000000000000815260040180806020018281038252601f8152602001807f5369676e6174757265207468726573686f6c6420616c7265616479207365740081526020015060200191505060405180910390fd5b600060026000505490508160026000508190909055507f149153f58b4da003a8cfd4523709a202402182cb5aa335046911277a1be6eede81600260005054604051808381526020018281526020019250505060405180910390a1505b5b50565b6000610a8f82600360005061110090919063ffffffff16565b9050610a96565b919050565b610aa961112863ffffffff16565b600073ffffffffffffffffffffffffffffffffffffffff168173ffffffffffffffffffffffffffffffffffffffff1614151515610b51576040517f08c379a00000000000000000000000000000000000000000000000000000000081526004018080602001828103825260208152602001807f496e76616c6964206174746573746572206d616e61676572206164647265737381526020015060200191505060405180910390fd5b6000600560009054906101000a900473ffffffffffffffffffffffffffffffffffffffff169050610b87826111eb63ffffffff16565b8173ffffffffffffffffffffffffffffffffffffffff168173ffffffffffffffffffffffffffffffffffffffff167f0cee1b7ae04f3c788dd3a46c6fa677eb95b913611ef7ab59524fdc09d346021960405160405180910390a3505b5b50565b6000600160009054906101000a900473ffffffffffffffffffffffffffffffffffffffff169050610c13565b90565b610c2461112863ffffffff16565b80600160006101000a81548173ffffffffffffffffffffffffffffffffffffffff021916908373ffffffffffffffffffffffffffffffffffffffff1602179055508073ffffffffffffffffffffffffffffffffffffffff16610c8a61075c63ffffffff16565b73ffffffffffffffffffffffffffffffffffffffff167f38d16b8cac22d99fc7c124b9cd0de2d3fa1faef420bfe791d8c362d765e2270060405160405180910390a35b5b50565b600560009054906101000a900473ffffffffffffffffffffffffffffffffffffffff1673ffffffffffffffffffffffffffffffffffffffff163373ffffffffffffffffffffffffffffffffffffffff16141515610d99576040517f08c379a000000000000000000000000000000000000000000000000000000000815260040180806020018281038252601b8152602001807f43616c6c6572206e6f74206174746573746572206d616e61676572000000000081526020015060200191505060405180910390fd5b600073ffffffffffffffffffffffffffffffffffffffff168173ffffffffffffffffffffffffffffffffffffffff1614151515610e41576040517f08c379a000000000000000000000000000000000000000000000000000000000815260040180806020018281038252601c8152602001807f4e6577206174746573746572206d757374206265206e6f6e7a65726f0000000081526020015060200191505060405180910390fd5b610e58816003600050610fde90919063ffffffff16565b1515610ecf576040517f08c379a00000000000000000000000000000000000000000000000000000000081526004018080602001828103825260188152602001807f417474657374657220616c726561647920656e61626c6564000000000000000081526020015060200191505060405180910390fd5b8073ffffffffffffffffffffffffffffffffffffffff167f5b99bab45c72ce67e89466dbc47480b9c1fde1400e7268bbf463b8354ee4653f60405160405180910390a25b5b50565b6000600060009054906101000a900473ffffffffffffffffffffffffffffffffffffffff16905081600060006101000a81548173ffffffffffffffffffffffffffffffffffffffff021916908373ffffffffffffffffffffffffffffffffffffffff1602179055508173ffffffffffffffffffffffffffffffffffffffff168173ffffffffffffffffffffffffffffffffffffffff167f8be0079c531659141344cd1fd0a4f28419497f9722a3daafe3b4186f6b6457e060405160405180910390a3505b50565b600061100f836000016000508373ffffffffffffffffffffffffffffffffffffffff1660001b61123063ffffffff16565b9050611016565b92915050565b600061104d836000016000508373ffffffffffffffffffffffffffffffffffffffff1660001b6112cf63ffffffff16565b9050611054565b92915050565b60006110718260000160005061141a63ffffffff16565b9050611078565b919050565b6000339050611087565b90565b600160006101000a81549073ffffffffffffffffffffffffffffffffffffffff02191690556110be81610f1763ffffffff16565b5b50565b60006110f3836000016000508373ffffffffffffffffffffffffffffffffffffffff1660001b61143363ffffffff16565b90506110fa565b92915050565b6000611118836000016000508361146a63ffffffff16565b60001c9050611122565b92915050565b61113661107d63ffffffff16565b73ffffffffffffffffffffffffffffffffffffffff1661115a61075c63ffffffff16565b73ffffffffffffffffffffffffffffffffffffffff161415156111e8576040517f08c379a00000000000000000000000000000000000000000000000000000000081526004018080602001828103825260208152602001807f4f776e61626c653a2063616c6c6572206973206e6f7420746865206f776e657281526020015060200191505060405180910390fd5b5b565b80600560006101000a81548173ffffffffffffffffffffffffffffffffffffffff021916908373ffffffffffffffffffffffffffffffffffffffff1602179055505b50565b6000611242838361143363ffffffff16565b15156112bf578260000160005082908060018154018082558091505060019003906000526020600020900160005b909190919091509060001916905582600001600050805490508360010160005060008460001916600019168152602001908152602001600020600050819090905550600190506112c9566112c8565b600090506112c9565b5b92915050565b6000600083600101600050600084600019166000191681526020019081526020016000206000505490506000811415156114085760006001820390506000600186600001600050805490500390506000866000016000508281548110151561133357fe5b906000526020600020900160005b5054905080876000016000508481548110151561135a57fe5b906000526020600020900160005b50819090600019169055506001830187600101600050600083600019166000191681526020019081526020016000206000508190909055508660000160005080548015156113b257fe5b600190038181906000526020600020900160005b50600090559055866001016000506000876000191660001916815260200190815260200160002060005060009055600194505050505061141456505050611412565b6000915050611414565b505b92915050565b60008160000160005080549050905061142e565b919050565b6000600083600101600050600084600019166000191681526020019081526020016000206000505414159050611464565b92915050565b60008183600001600050805490501115156114d0576040517f08c379a00000000000000000000000000000000000000000000000000000000081526004018080602001828103825260228152602001806115026022913960400191505060405180910390fd5b82600001600050828154811015156114e457fe5b906000526020600020900160005b505490506114fb565b9291505056fe456e756d657261626c655365743a20696e646578206f7574206f6620626f756e64734f776e61626c6532537465703a2063616c6c6572206973206e6f7420746865206e6577206f776e6572a26469706673582212203b7261f49e8683e48b912afb99d29367f1003a18fb994b3e794e7bac563e213a64736f6c63430007060033","linkReferences":{}},"methodIdentifiers":{"acceptOwnership()":"79ba5097","attesterManager()":"9b0d94b7","disableAttester(address)":"2d025080","enableAttester(address)":"fae36879","getEnabledAttester(uint256)":"beb673d8","getNumEnabledAttesters()":"51079a53","isEnabledAttester(address)":"7af82f60","owner()":"8da5cb5b","pendingOwner()":"e30c3978","setSignatureThreshold(uint256)":"bbde5374","signatureThreshold()":"a82f2e26","transferOwnership(address)":"f2fde38b","updateAttesterManager(address)":"de7769d4"},"id":27}