{"abi":[{"type":"function","name":"acceptOwnership","inputs":[],"outputs":[],"stateMutability":"nonpayable"},{"type":"function","name":"owner","inputs":[],"outputs":[{"name":"","type":"address","internalType":"address"}],"stateMutability":"view"},{"type":"function","name":"pendingOwner","inputs":[],"outputs":[{"name":"","type":"address","internalType":"address"}],"stateMutability":"view"},{"type":"function","name":"rescueERC20","inputs":[{"name":"tokenContract","type":"address","internalType":"contract IERC20"},{"name":"to","type":"address","internalType":"address"},{"name":"amount","type":"uint256","internalType":"uint256"}],"outputs":[],"stateMutability":"nonpayable"},{"type":"function","name":"rescuer","inputs":[],"outputs":[{"name":"","type":"address","internalType":"address"}],"stateMutability":"view"},{"type":"function","name":"transferOwnership","inputs":[{"name":"newOwner","type":"address","internalType":"address"}],"outputs":[],"stateMutability":"nonpayable"},{"type":"function","name":"updateRescuer","inputs":[{"name":"newRescuer","type":"address","internalType":"address"}],"outputs":[],"stateMutability":"nonpayable"},{"type":"event","name":"OwnershipTransferStarted","inputs":[{"name":"previousOwner","type":"address","indexed":true,"internalType":"address"},{"name":"newOwner","type":"address","indexed":true,"internalType":"address"}],"anonymous":false},{"type":"event","name":"OwnershipTransferred","inputs":[{"name":"previousOwner","type":"address","indexed":true,"internalType":"address"},{"name":"newOwner","type":"address","indexed":true,"internalType":"address"}],"anonymous":false},{"type":"event","name":"RescuerChanged","inputs":[{"name":"newRescuer","type":"address","indexed":true,"internalType":"address"}],"anonymous":false}],"bytecode":{"object":"0x60806040523480156100115760006000fd5b505b61002f61002461003560201b60201c565b61004260201b60201c565b5b610145565b600033905061003f565b90565b600160006101000a81549073ffffffffffffffffffffffffffffffffffffffff021916905561007a8161007e60201b6106201760201c565b5b50565b6000600060009054906101000a900473ffffffffffffffffffffffffffffffffffffffff16905081600060006101000a81548173ffffffffffffffffffffffffffffffffffffffff021916908373ffffffffffffffffffffffffffffffffffffffff1602179055508173ffffffffffffffffffffffffffffffffffffffff168173ffffffffffffffffffffffffffffffffffffffff167f8be0079c531659141344cd1fd0a4f28419497f9722a3daafe3b4186f6b6457e060405160405180910390a3505b50565b610d66806101546000396000f3fe60806040523480156100115760006000fd5b50600436106100825760003560e01c80638da5cb5b1161005c5780638da5cb5b1461010b578063b2118a8d1461013f578063e30c3978146101ae578063f2fde38b146101e257610082565b80632ab600451461008857806338a63183146100cd57806379ba50971461010157610082565b60006000fd5b6100cb6004803603602081101561009f5760006000fd5b81019080803573ffffffffffffffffffffffffffffffffffffffff169060200190929190505050610227565b005b6100d5610346565b604051808273ffffffffffffffffffffffffffffffffffffffff16815260200191505060405180910390f35b610109610375565b005b61011361042d565b604051808273ffffffffffffffffffffffffffffffffffffffff16815260200191505060405180910390f35b6101ac600480360360608110156101565760006000fd5b81019080803573ffffffffffffffffffffffffffffffffffffffff169060200190929190803573ffffffffffffffffffffffffffffffffffffffff1690602001909291908035906020019092919050505061045c565b005b6101b6610536565b604051808273ffffffffffffffffffffffffffffffffffffffff16815260200191505060405180910390f35b610225600480360360208110156101f95760006000fd5b81019080803573ffffffffffffffffffffffffffffffffffffffff169060200190929190505050610565565b005b6102356106e763ffffffff16565b600073ffffffffffffffffffffffffffffffffffffffff168173ffffffffffffffffffffffffffffffffffffffff16141515156102bd576040517f08c379a000000000000000000000000000000000000000000000000000000000815260040180806020018281038252602a815260200180610c93602a913960400191505060405180910390fd5b80600260006101000a81548173ffffffffffffffffffffffffffffffffffffffff021916908373ffffffffffffffffffffffffffffffffffffffff1602179055508073ffffffffffffffffffffffffffffffffffffffff167fe475e580d85111348e40d8ca33cfdd74c30fe1655c2d8537a13abc10065ffa5a60405160405180910390a25b5b50565b6000600260009054906101000a900473ffffffffffffffffffffffffffffffffffffffff169050610372565b90565b60006103856107aa63ffffffff16565b90508073ffffffffffffffffffffffffffffffffffffffff166103ac61053663ffffffff16565b73ffffffffffffffffffffffffffffffffffffffff1614151561041a576040517f08c379a0000000000000000000000000000000000000000000000000000000008152600401808060200182810382526029815260200180610c6a6029913960400191505060405180910390fd5b610429816107b763ffffffff16565b505b565b6000600060009054906101000a900473ffffffffffffffffffffffffffffffffffffffff169050610459565b90565b600260009054906101000a900473ffffffffffffffffffffffffffffffffffffffff1673ffffffffffffffffffffffffffffffffffffffff163373ffffffffffffffffffffffffffffffffffffffff16141515610504576040517f08c379a0000000000000000000000000000000000000000000000000000000008152600401808060200182810382526024815260200180610ce36024913960400191505060405180910390fd5b61052f82828573ffffffffffffffffffffffffffffffffffffffff166107ef9092919063ffffffff16565b5b5b505050565b6000600160009054906101000a900473ffffffffffffffffffffffffffffffffffffffff169050610562565b90565b6105736106e763ffffffff16565b80600160006101000a81548173ffffffffffffffffffffffffffffffffffffffff021916908373ffffffffffffffffffffffffffffffffffffffff1602179055508073ffffffffffffffffffffffffffffffffffffffff166105d961042d63ffffffff16565b73ffffffffffffffffffffffffffffffffffffffff167f38d16b8cac22d99fc7c124b9cd0de2d3fa1faef420bfe791d8c362d765e2270060405160405180910390a35b5b50565b6000600060009054906101000a900473ffffffffffffffffffffffffffffffffffffffff16905081600060006101000a81548173ffffffffffffffffffffffffffffffffffffffff021916908373ffffffffffffffffffffffffffffffffffffffff1602179055508173ffffffffffffffffffffffffffffffffffffffff168173ffffffffffffffffffffffffffffffffffffffff167f8be0079c531659141344cd1fd0a4f28419497f9722a3daafe3b4186f6b6457e060405160405180910390a3505b50565b6106f56107aa63ffffffff16565b73ffffffffffffffffffffffffffffffffffffffff1661071961042d63ffffffff16565b73ffffffffffffffffffffffffffffffffffffffff161415156107a7576040517f08c379a00000000000000000000000000000000000000000000000000000000081526004018080602001828103825260208152602001807f4f776e61626c653a2063616c6c6572206973206e6f7420746865206f776e657281526020015060200191505060405180910390fd5b5b565b60003390506107b4565b90565b600160006101000a81549073ffffffffffffffffffffffffffffffffffffffff02191690556107eb8161062063ffffffff16565b5b50565b6108928363a9059cbb60e01b8484604051602401808373ffffffffffffffffffffffffffffffffffffffff16815260200182815260200192505050604051602081830303815290604052907bffffffffffffffffffffffffffffffffffffffffffffffffffffffff19166020820180517bffffffffffffffffffffffffffffffffffffffffffffffffffffffff838183161783525050505061089863ffffffff16565b5b505050565b60006108fd826040518060400160405280602081526020017f5361666545524332303a206c6f772d6c6576656c2063616c6c206661696c65648152602001508573ffffffffffffffffffffffffffffffffffffffff1661098e9092919063ffffffff16565b90506000815111156109885780806020019051602081101561091f5760006000fd5b81019080805190602001909291905050501515610987576040517f08c379a000000000000000000000000000000000000000000000000000000000815260040180806020018281038252602a815260200180610d07602a913960400191505060405180910390fd5b5b505b5050565b60606109a384846000856109b163ffffffff16565b90506109aa565b9392505050565b6060824710151515610a0e576040517f08c379a0000000000000000000000000000000000000000000000000000000008152600401808060200182810382526026815260200180610cbd6026913960400191505060405180910390fd5b610a1d85610b7763ffffffff16565b1515610a94576040517f08c379a000000000000000000000000000000000000000000000000000000000815260040180806020018281038252601d8152602001807f416464726573733a2063616c6c20746f206e6f6e2d636f6e747261637400000081526020015060200191505060405180910390fd5b600060008673ffffffffffffffffffffffffffffffffffffffff1685876040518082805190602001908083835b602083101515610ae757805182525b602082019150602081019050602083039250610ac1565b6001836020036101000a03801982511681845116808217855250505050505090500191505060006040518083038185875af1925050503d8060008114610b49576040519150601f19603f3d011682016040523d82523d6000602084013e610b4e565b606091505b5091509150610b64828286610b9163ffffffff16565b92505050610b6f5650505b949350505050565b60006000823b905060008111915050610b8c56505b919050565b60608315610ba557829050610c6256610c61565b600083511115610bbd5782518084602001fd50610c60565b816040517f08c379a00000000000000000000000000000000000000000000000000000000081526004018080602001828103825283818151815260200191508051906020019080838360005b83811015610c255780820151818401525b602081019050610c09565b50505050905090810190601f168015610c525780820380516001836020036101000a031916815260200191505b509250505060405180910390fd5b5b5b939250505056fe4f776e61626c6532537465703a2063616c6c6572206973206e6f7420746865206e6577206f776e6572526573637561626c653a206e6577207265736375657220697320746865207a65726f2061646472657373416464726573733a20696e73756666696369656e742062616c616e636520666f722063616c6c526573637561626c653a2063616c6c6572206973206e6f742074686520726573637565725361666545524332303a204552433230206f7065726174696f6e20646964206e6f742073756363656564a26469706673582212207ded77fd9472276f4b2ccd8861e395b405ded90d6cb86344ed99d6a4dd0655e464736f6c63430007060033","linkReferences":{}},"methodIdentifiers":{"acceptOwnership()":"79ba5097","owner()":"8da5cb5b","pendingOwner()":"e30c3978","rescueERC20(address,address,uint256)":"b2118a8d","rescuer()":"38a63183","transferOwnership(address)":"f2fde38b","updateRescuer(address)":"2ab60045"},"id":31}