{"abi":[{"type":"constructor","inputs":[{"name":"_tokenController","type":"address","internalType":"address"}],"stateMutability":"nonpayable"},{"type":"function","name":"acceptOwnership","inputs":[],"outputs":[],"stateMutability":"nonpayable"},{"type":"function","name":"addLocalTokenMessenger","inputs":[{"name":"newLocalTokenMessenger","type":"address","internalType":"address"}],"outputs":[],"stateMutability":"nonpayable"},{"type":"function","name":"burn","inputs":[{"name":"burnToken","type":"address","internalType":"address"},{"name":"burnAmount","type":"uint256","internalType":"uint256"}],"outputs":[],"stateMutability":"nonpayable"},{"type":"function","name":"burnLimitsPerMessage","inputs":[{"name":"","type":"address","internalType":"address"}],"outputs":[{"name":"","type":"uint256","internalType":"uint256"}],"stateMutability":"view"},{"type":"function","name":"getLocalToken","inputs":[{"name":"remoteDomain","type":"uint32","internalType":"uint32"},{"name":"remoteToken","type":"bytes32","internalType":"bytes32"}],"outputs":[{"name":"","type":"address","internalType":"address"}],"stateMutability":"view"},{"type":"function","name":"linkTokenPair","inputs":[{"name":"localToken","type":"address","internalType":"address"},{"name":"remoteDomain","type":"uint32","internalType":"uint32"},{"name":"remoteToken","type":"bytes32","internalType":"bytes32"}],"outputs":[],"stateMutability":"nonpayable"},{"type":"function","name":"localTokenMessenger","inputs":[],"outputs":[{"name":"","type":"address","internalType":"address"}],"stateMutability":"view"},{"type":"function","name":"mint","inputs":[{"name":"sourceDomain","type":"uint32","internalType":"uint32"},{"name":"burnToken","type":"bytes32","internalType":"bytes32"},{"name":"to","type":"address","internalType":"address"},{"name":"amount","type":"uint256","internalType":"uint256"}],"outputs":[{"name":"mintToken","type":"address","internalType":"address"}],"stateMutability":"nonpayable"},{"type":"function","name":"owner","inputs":[],"outputs":[{"name":"","type":"address","internalType":"address"}],"stateMutability":"view"},{"type":"function","name":"pause","inputs":[],"outputs":[],"stateMutability":"nonpayable"},{"type":"function","name":"paused","inputs":[],"outputs":[{"name":"","type":"bool","internalType":"bool"}],"stateMutability":"view"},{"type":"function","name":"pauser","inputs":[],"outputs":[{"name":"","type":"address","internalType":"address"}],"stateMutability":"view"},{"type":"function","name":"pendingOwner","inputs":[],"outputs":[{"name":"","type":"address","internalType":"address"}],"stateMutability":"view"},{"type":"function","name":"remoteTokensToLocalTokens","inputs":[{"name":"","type":"bytes32","internalType":"bytes32"}],"outputs":[{"name":"","type":"address","internalType":"address"}],"stateMutability":"view"},{"type":"function","name":"removeLocalTokenMessenger","inputs":[],"outputs":[],"stateMutability":"nonpayable"},{"type":"function","name":"rescueERC20","inputs":[{"name":"tokenContract","type":"address","internalType":"contract IERC20"},{"name":"to","type":"address","internalType":"address"},{"name":"amount","type":"uint256","internalType":"uint256"}],"outputs":[],"stateMutability":"nonpayable"},{"type":"function","name":"rescuer","inputs":[],"outputs":[{"name":"","type":"address","internalType":"address"}],"stateMutability":"view"},{"type":"function","name":"setMaxBurnAmountPerMessage","inputs":[{"name":"localToken","type":"address","internalType":"address"},{"name":"burnLimitPerMessage","type":"uint256","internalType":"uint256"}],"outputs":[],"stateMutability":"nonpayable"},{"type":"function","name":"setTokenController","inputs":[{"name":"newTokenController","type":"address","internalType":"address"}],"outputs":[],"stateMutability":"nonpayable"},{"type":"function","name":"tokenController","inputs":[],"outputs":[{"name":"","type":"address","internalType":"address"}],"stateMutability":"view"},{"type":"function","name":"transferOwnership","inputs":[{"name":"newOwner","type":"address","internalType":"address"}],"outputs":[],"stateMutability":"nonpayable"},{"type":"function","name":"unlinkTokenPair","inputs":[{"name":"localToken","type":"address","internalType":"address"},{"name":"remoteDomain","type":"uint32","internalType":"uint32"},{"name":"remoteToken","type":"bytes32","internalType":"bytes32"}],"outputs":[],"stateMutability":"nonpayable"},{"type":"function","name":"unpause","inputs":[],"outputs":[],"stateMutability":"nonpayable"},{"type":"function","name":"updatePauser","inputs":[{"name":"_newPauser","type":"address","internalType":"address"}],"outputs":[],"stateMutability":"nonpayable"},{"type":"function","name":"updateRescuer","inputs":[{"name":"newRescuer","type":"address","internalType":"address"}],"outputs":[],"stateMutability":"nonpayable"},{"type":"event","name":"LocalTokenMessengerAdded","inputs":[{"name":"localTokenMessenger","type":"address","indexed":false,"internalType":"address"}],"anonymous":false},{"type":"event","name":"LocalTokenMessengerRemoved","inputs":[{"name":"localTokenMessenger","type":"address","indexed":false,"internalType":"address"}],"anonymous":false},{"type":"event","name":"OwnershipTransferStarted","inputs":[{"name":"previousOwner","type":"address","indexed":true,"internalType":"address"},{"name":"newOwner","type":"address","indexed":true,"internalType":"address"}],"anonymous":false},{"type":"event","name":"OwnershipTransferred","inputs":[{"name":"previousOwner","type":"address","indexed":true,"internalType":"address"},{"name":"newOwner","type":"address","indexed":true,"internalType":"address"}],"anonymous":false},{"type":"event","name":"Pause","inputs":[],"anonymous":false},{"type":"event","name":"PauserChanged","inputs":[{"name":"newAddress","type":"address","indexed":true,"internalType":"address"}],"anonymous":false},{"type":"event","name":"RescuerChanged","inputs":[{"name":"newRescuer","type":"address","indexed":true,"internalType":"address"}],"anonymous":false},{"type":"event","name":"SetBurnLimitPerMessage","inputs":[{"name":"token","type":"address","indexed":true,"internalType":"address"},{"name":"burnLimitPerMessage","type":"uint256","indexed":false,"internalType":"uint256"}],"anonymous":false},{"type":"event","name":"SetTokenController","inputs":[{"name":"tokenController","type":"address","indexed":false,"internalType":"address"}],"anonymous":false},{"type":"event","name":"TokenPairLinked","inputs":[{"name":"localToken","type":"address","indexed":false,"internalType":"address"},{"name":"remoteDomain","type":"uint32","indexed":false,"internalType":"uint32"},{"name":"remoteToken","type":"bytes32","indexed":false,"internalType":"bytes32"}],"anonymous":false},{"type":"event","name":"TokenPairUnlinked","inputs":[{"name":"localToken","type":"address","indexed":false,"internalType":"address"},{"name":"remoteDomain","type":"uint32","indexed":false,"internalType":"uint32"},{"name":"remoteToken","type":"bytes32","indexed":false,"internalType":"bytes32"}],"anonymous":false},{"type":"event","name":"Unpause","inputs":[],"anonymous":false}],"bytecode":{"object":"0x60806040526000600560146101000a81548160ff0219169083151502179055503480156200002d5760006000fd5b5060405162002d2838038062002d2883398181016040526020811015620000545760006000fd5b81019080805190602001909291905050505b5b620000876200007b620000a160201b60201c565b620000af60201b60201c565b5b6200009981620000ee60201b60201c565b5b50620002f0565b6000339050620000ac565b90565b600460006101000a81549073ffffffffffffffffffffffffffffffffffffffff0219169055620000ea816200022960201b62001ff71760201c565b5b50565b600073ffffffffffffffffffffffffffffffffffffffff168173ffffffffffffffffffffffffffffffffffffffff161415151562000197576040517f08c379a00000000000000000000000000000000000000000000000000000000081526004018080602001828103825260208152602001807f496e76616c696420746f6b656e20636f6e74726f6c6c6572206164647265737381526020015060200191505060405180910390fd5b80600260006101000a81548173ffffffffffffffffffffffffffffffffffffffff021916908373ffffffffffffffffffffffffffffffffffffffff1602179055507fbc661161c0cbda8d30350f565f4a00497983a8204ce97d977fa633359160b07581604051808273ffffffffffffffffffffffffffffffffffffffff16815260200191505060405180910390a15b50565b6000600360009054906101000a900473ffffffffffffffffffffffffffffffffffffffff16905081600360006101000a81548173ffffffffffffffffffffffffffffffffffffffff021916908373ffffffffffffffffffffffffffffffffffffffff1602179055508173ffffffffffffffffffffffffffffffffffffffff168173ffffffffffffffffffffffffffffffffffffffff167f8be0079c531659141344cd1fd0a4f28419497f9722a3daafe3b4186f6b6457e060405160405180910390a3505b50565b612a2880620003006000396000f3fe60806040523480156100115760006000fd5b50600436106101785760003560e01c80638456cb59116100df578063cec74c0311610098578063e30c397811610072578063e30c3978146106da578063eddd9d821461070e578063eed3b9da14610742578063f2fde38b1461079f57610178565b8063cec74c03146105f4578063d54de06f146105fe578063e102baab1461069557610178565b80638456cb591461046b5780638da5cb5b146104755780639dc29fac146104a95780639fd0506d146104f8578063a56ec6321461052c578063b2118a8d1461058557610178565b8063554bab3c11610131578063554bab3c1461030c5780635c975abb146103515780637235ea0c14610371578063770fc1f0146103c057806378a0565e146103f457806379ba50971461046157610178565b806311b35fa41461017e5780632ab60045146101e15780632b2b90e11461022657806336a816da1461028957806338a63183146102ce5780633f4ba83a1461030257610178565b60006000fd5b6101df600480360360608110156101955760006000fd5b81019080803573ffffffffffffffffffffffffffffffffffffffff169060200190929190803563ffffffff16906020019092919080356000191690602001909291905050506107e4565b005b610224600480360360208110156101f85760006000fd5b81019080803573ffffffffffffffffffffffffffffffffffffffff169060200190929190505050610a56565b005b6102876004803603606081101561023d5760006000fd5b81019080803573ffffffffffffffffffffffffffffffffffffffff169060200190929190803563ffffffff1690602001909291908035600019169060200190929190505050610b75565b005b6102cc600480360360208110156102a05760006000fd5b81019080803573ffffffffffffffffffffffffffffffffffffffff169060200190929190505050610e02565b005b6102d6611036565b604051808273ffffffffffffffffffffffffffffffffffffffff16815260200191505060405180910390f35b61030a611065565b005b61034f600480360360208110156103235760006000fd5b81019080803573ffffffffffffffffffffffffffffffffffffffff169060200190929190505050611158565b005b610359611299565b60405180821515815260200191505060405180910390f35b6103be600480360360408110156103885760006000fd5b81019080803573ffffffffffffffffffffffffffffffffffffffff169060200190929190803590602001909291905050506112ac565b005b6103c8611414565b604051808273ffffffffffffffffffffffffffffffffffffffff16815260200191505060405180910390f35b6104356004803603604081101561040b5760006000fd5b81019080803563ffffffff169060200190929190803560001916906020019092919050505061143a565b604051808273ffffffffffffffffffffffffffffffffffffffff16815260200191505060405180910390f35b610469611459565b005b610473611511565b005b61047d611604565b604051808273ffffffffffffffffffffffffffffffffffffffff16815260200191505060405180910390f35b6104f6600480360360408110156104c05760006000fd5b81019080803573ffffffffffffffffffffffffffffffffffffffff16906020019092919080359060200190929190505050611633565b005b610500611900565b604051808273ffffffffffffffffffffffffffffffffffffffff16815260200191505060405180910390f35b61056f600480360360208110156105435760006000fd5b81019080803573ffffffffffffffffffffffffffffffffffffffff16906020019092919050505061192f565b6040518082815260200191505060405180910390f35b6105f26004803603606081101561059c5760006000fd5b81019080803573ffffffffffffffffffffffffffffffffffffffff169060200190929190803573ffffffffffffffffffffffffffffffffffffffff1690602001909291908035906020019092919050505061194a565b005b6105fc611a24565b005b610669600480360360808110156106155760006000fd5b81019080803563ffffffff1690602001909291908035600019169060200190929190803573ffffffffffffffffffffffffffffffffffffffff16906020019092919080359060200190929190505050611b78565b604051808273ffffffffffffffffffffffffffffffffffffffff16815260200191505060405180910390f35b6106d8600480360360208110156106ac5760006000fd5b81019080803573ffffffffffffffffffffffffffffffffffffffff169060200190929190505050611e84565b005b6106e2611ea6565b604051808273ffffffffffffffffffffffffffffffffffffffff16815260200191505060405180910390f35b610716611ed5565b604051808273ffffffffffffffffffffffffffffffffffffffff16815260200191505060405180910390f35b610773600480360360208110156107595760006000fd5b810190808035600019169060200190929190505050611f04565b604051808273ffffffffffffffffffffffffffffffffffffffff16815260200191505060405180910390f35b6107e2600480360360208110156107b65760006000fd5b81019080803573ffffffffffffffffffffffffffffffffffffffff169060200190929190505050611f3c565b005b600260009054906101000a900473ffffffffffffffffffffffffffffffffffffffff1673ffffffffffffffffffffffffffffffffffffffff163373ffffffffffffffffffffffffffffffffffffffff161415156108ac576040517f08c379a000000000000000000000000000000000000000000000000000000000815260040180806020018281038252601d8152602001807f43616c6c6572206973206e6f7420746f6b656e436f6e74726f6c6c657200000081526020015060200191505060405180910390fd5b60006108be83836120be63ffffffff16565b9050600073ffffffffffffffffffffffffffffffffffffffff1660016000506000836000191660001916815260200190815260200160002060009054906101000a900473ffffffffffffffffffffffffffffffffffffffff1673ffffffffffffffffffffffffffffffffffffffff16141515156109a6576040517f08c379a000000000000000000000000000000000000000000000000000000000815260040180806020018281038252601b8152602001807f556e61626c6520746f20756e6c696e6b20746f6b656e2070616972000000000081526020015060200191505060405180910390fd5b60016000506000826000191660001916815260200190815260200160002060006101000a81549073ffffffffffffffffffffffffffffffffffffffff02191690557fa545a3b499d14157d483b3da15afb4c3845531142505def4697f46863750b09e848484604051808473ffffffffffffffffffffffffffffffffffffffff1681526020018363ffffffff16815260200182600019168152602001935050505060405180910390a1505b5b505050565b610a6461210963ffffffff16565b600073ffffffffffffffffffffffffffffffffffffffff168173ffffffffffffffffffffffffffffffffffffffff1614151515610aec576040517f08c379a000000000000000000000000000000000000000000000000000000000815260040180806020018281038252602a815260200180612933602a913960400191505060405180910390fd5b80600660006101000a81548173ffffffffffffffffffffffffffffffffffffffff021916908373ffffffffffffffffffffffffffffffffffffffff1602179055508073ffffffffffffffffffffffffffffffffffffffff167fe475e580d85111348e40d8ca33cfdd74c30fe1655c2d8537a13abc10065ffa5a60405160405180910390a25b5b50565b600260009054906101000a900473ffffffffffffffffffffffffffffffffffffffff1673ffffffffffffffffffffffffffffffffffffffff163373ffffffffffffffffffffffffffffffffffffffff16141515610c3d576040517f08c379a000000000000000000000000000000000000000000000000000000000815260040180806020018281038252601d8152602001807f43616c6c6572206973206e6f7420746f6b656e436f6e74726f6c6c657200000081526020015060200191505060405180910390fd5b6000610c4f83836120be63ffffffff16565b9050600073ffffffffffffffffffffffffffffffffffffffff1660016000506000836000191660001916815260200190815260200160002060009054906101000a900473ffffffffffffffffffffffffffffffffffffffff1673ffffffffffffffffffffffffffffffffffffffff16141515610d36576040517f08c379a00000000000000000000000000000000000000000000000000000000081526004018080602001828103825260198152602001807f556e61626c6520746f206c696e6b20746f6b656e20706169720000000000000081526020015060200191505060405180910390fd5b8360016000506000836000191660001916815260200190815260200160002060006101000a81548173ffffffffffffffffffffffffffffffffffffffff021916908373ffffffffffffffffffffffffffffffffffffffff1602179055507f0d62f22541e067b40918826c6ea1d53a5d3d8cd6db5ea2412f98ee1365806727848484604051808473ffffffffffffffffffffffffffffffffffffffff1681526020018363ffffffff16815260200182600019168152602001935050505060405180910390a1505b5b505050565b610e1061210963ffffffff16565b600073ffffffffffffffffffffffffffffffffffffffff168173ffffffffffffffffffffffffffffffffffffffff1614151515610eb8576040517f08c379a000000000000000000000000000000000000000000000000000000000815260040180806020018281038252601e8152602001807f496e76616c696420546f6b656e4d657373656e6765722061646472657373000081526020015060200191505060405180910390fd5b600073ffffffffffffffffffffffffffffffffffffffff16600760009054906101000a900473ffffffffffffffffffffffffffffffffffffffff1673ffffffffffffffffffffffffffffffffffffffff16141515610f81576040517f08c379a00000000000000000000000000000000000000000000000000000000081526004018080602001828103825260208152602001807f4c6f63616c20546f6b656e4d657373656e67657220616c72656164792073657481526020015060200191505060405180910390fd5b80600760006101000a81548173ffffffffffffffffffffffffffffffffffffffff021916908373ffffffffffffffffffffffffffffffffffffffff1602179055507f9b5383f8f338b0114c8a37985032531722c23d3266b6304c09d5712c7aa9c53a600760009054906101000a900473ffffffffffffffffffffffffffffffffffffffff16604051808273ffffffffffffffffffffffffffffffffffffffff16815260200191505060405180910390a15b5b50565b6000600660009054906101000a900473ffffffffffffffffffffffffffffffffffffffff169050611062565b90565b600560009054906101000a900473ffffffffffffffffffffffffffffffffffffffff1673ffffffffffffffffffffffffffffffffffffffff163373ffffffffffffffffffffffffffffffffffffffff1614151561110d576040517f08c379a00000000000000000000000000000000000000000000000000000000081526004018080602001828103825260228152602001806129a76022913960400191505060405180910390fd5b6000600560146101000a81548160ff0219169083151502179055507f7805862f689e2f13df9f062ff482ad3ad112aca9e0847911ed832e158c525b3360405160405180910390a15b5b565b61116661210963ffffffff16565b600073ffffffffffffffffffffffffffffffffffffffff168173ffffffffffffffffffffffffffffffffffffffff16141515156111ee576040517f08c379a00000000000000000000000000000000000000000000000000000000081526004018080602001828103825260288152602001806128e26028913960400191505060405180910390fd5b80600560006101000a81548173ffffffffffffffffffffffffffffffffffffffff021916908373ffffffffffffffffffffffffffffffffffffffff160217905550600560009054906101000a900473ffffffffffffffffffffffffffffffffffffffff1673ffffffffffffffffffffffffffffffffffffffff167fb80482a293ca2e013eda8683c9bd7fc8347cfdaeea5ede58cba46df502c2a60460405160405180910390a25b5b50565b600560149054906101000a900460ff1681565b600260009054906101000a900473ffffffffffffffffffffffffffffffffffffffff1673ffffffffffffffffffffffffffffffffffffffff163373ffffffffffffffffffffffffffffffffffffffff16141515611374576040517f08c379a000000000000000000000000000000000000000000000000000000000815260040180806020018281038252601d8152602001807f43616c6c6572206973206e6f7420746f6b656e436f6e74726f6c6c657200000081526020015060200191505060405180910390fd5b80600060005060008473ffffffffffffffffffffffffffffffffffffffff1673ffffffffffffffffffffffffffffffffffffffff1681526020019081526020016000206000508190909055508173ffffffffffffffffffffffffffffffffffffffff167f6aa98de3efb0f031e70a96b4bd97fafc58474ad59f4e890aa3733bba321ecca2826040518082815260200191505060405180910390a25b5b5050565b600760009054906101000a900473ffffffffffffffffffffffffffffffffffffffff1681565b600061144c83836121cc63ffffffff16565b9050611453565b92915050565b600061146961223063ffffffff16565b90508073ffffffffffffffffffffffffffffffffffffffff16611490611ea663ffffffff16565b73ffffffffffffffffffffffffffffffffffffffff161415156114fe576040517f08c379a000000000000000000000000000000000000000000000000000000000815260040180806020018281038252602981526020018061290a6029913960400191505060405180910390fd5b61150d8161223d63ffffffff16565b505b565b600560009054906101000a900473ffffffffffffffffffffffffffffffffffffffff1673ffffffffffffffffffffffffffffffffffffffff163373ffffffffffffffffffffffffffffffffffffffff161415156115b9576040517f08c379a00000000000000000000000000000000000000000000000000000000081526004018080602001828103825260228152602001806129a76022913960400191505060405180910390fd5b6001600560146101000a81548160ff0219169083151502179055507f6985a02210a168e66602d3235cb6db0e70f92b3ba4d376a33c0f3d9434bff62560405160405180910390a15b5b565b6000600360009054906101000a900473ffffffffffffffffffffffffffffffffffffffff169050611630565b90565b600560149054906101000a900460ff161515156116bb576040517f08c379a00000000000000000000000000000000000000000000000000000000081526004018080602001828103825260108152602001807f5061757361626c653a207061757365640000000000000000000000000000000081526020015060200191505060405180910390fd5b6116c961227563ffffffff16565b1515611740576040517f08c379a000000000000000000000000000000000000000000000000000000000815260040180806020018281038252601f8152602001807f43616c6c6572206e6f74206c6f63616c20546f6b656e4d657373656e6765720081526020015060200191505060405180910390fd5b81816000600060005060008473ffffffffffffffffffffffffffffffffffffffff1673ffffffffffffffffffffffffffffffffffffffff168152602001908152602001600020600050549050600081111515611807576040517f08c379a00000000000000000000000000000000000000000000000000000000081526004018080602001828103825260188152602001807f4275726e20746f6b656e206e6f7420737570706f72746564000000000000000081526020015060200191505060405180910390fd5b808211151515611882576040517f08c379a00000000000000000000000000000000000000000000000000000000081526004018080602001828103825260208152602001807f4275726e20616d6f756e74206578636565647320706572207478206c696d697481526020015060200191505060405180910390fd5b60008590508073ffffffffffffffffffffffffffffffffffffffff166342966c68866040518263ffffffff1660e01b815260040180828152602001915050600060405180830381600087803b1580156118db5760006000fd5b505af11580156118f0573d600060003e3d6000fd5b50505050505b505b50505b5b5050565b6000600560009054906101000a900473ffffffffffffffffffffffffffffffffffffffff16905061192c565b90565b60006000506020528060005260406000206000915090505481565b600660009054906101000a900473ffffffffffffffffffffffffffffffffffffffff1673ffffffffffffffffffffffffffffffffffffffff163373ffffffffffffffffffffffffffffffffffffffff161415156119f2576040517f08c379a00000000000000000000000000000000000000000000000000000000081526004018080602001828103825260248152602001806129836024913960400191505060405180910390fd5b611a1d82828573ffffffffffffffffffffffffffffffffffffffff1661232d9092919063ffffffff16565b5b5b505050565b611a3261210963ffffffff16565b6000600760009054906101000a900473ffffffffffffffffffffffffffffffffffffffff169050600073ffffffffffffffffffffffffffffffffffffffff168173ffffffffffffffffffffffffffffffffffffffff1614151515611b01576040517f08c379a000000000000000000000000000000000000000000000000000000000815260040180806020018281038252601e8152602001807f4e6f206c6f63616c20546f6b656e4d657373656e67657220697320736574000081526020015060200191505060405180910390fd5b600760006101000a81549073ffffffffffffffffffffffffffffffffffffffff02191690557ff38224d382e0b9cd3f016a2cc70e00cc46f3c902a50d96f1e32f10a9c9ecc5bc81604051808273ffffffffffffffffffffffffffffffffffffffff16815260200191505060405180910390a1505b5b565b6000600560149054906101000a900460ff16151515611c02576040517f08c379a00000000000000000000000000000000000000000000000000000000081526004018080602001828103825260108152602001807f5061757361626c653a207061757365640000000000000000000000000000000081526020015060200191505060405180910390fd5b611c1061227563ffffffff16565b1515611c87576040517f08c379a000000000000000000000000000000000000000000000000000000000815260040180806020018281038252601f8152602001807f43616c6c6572206e6f74206c6f63616c20546f6b656e4d657373656e6765720081526020015060200191505060405180910390fd5b6000611c9986866121cc63ffffffff16565b9050600073ffffffffffffffffffffffffffffffffffffffff168173ffffffffffffffffffffffffffffffffffffffff1614151515611d43576040517f08c379a00000000000000000000000000000000000000000000000000000000081526004018080602001828103825260188152602001807f4d696e7420746f6b656e206e6f7420737570706f72746564000000000000000081526020015060200191505060405180910390fd5b60008190508073ffffffffffffffffffffffffffffffffffffffff166340c10f1986866040518363ffffffff1660e01b8152600401808373ffffffffffffffffffffffffffffffffffffffff16815260200182815260200192505050602060405180830381600087803b158015611dba5760006000fd5b505af1158015611dcf573d600060003e3d6000fd5b505050506040513d6020811015611de65760006000fd5b81019080805190602001909291905050501515611e6e576040517f08c379a00000000000000000000000000000000000000000000000000000000081526004018080602001828103825260158152602001807f4d696e74206f7065726174696f6e206661696c6564000000000000000000000081526020015060200191505060405180910390fd5b8192505050611e7a5650505b5b5b949350505050565b611e9261210963ffffffff16565b611ea1816123d663ffffffff16565b5b5b50565b6000600460009054906101000a900473ffffffffffffffffffffffffffffffffffffffff169050611ed2565b90565b6000600260009054906101000a900473ffffffffffffffffffffffffffffffffffffffff169050611f01565b90565b600160005060205280600052604060002060009150909054906101000a900473ffffffffffffffffffffffffffffffffffffffff1681565b611f4a61210963ffffffff16565b80600460006101000a81548173ffffffffffffffffffffffffffffffffffffffff021916908373ffffffffffffffffffffffffffffffffffffffff1602179055508073ffffffffffffffffffffffffffffffffffffffff16611fb061160463ffffffff16565b73ffffffffffffffffffffffffffffffffffffffff167f38d16b8cac22d99fc7c124b9cd0de2d3fa1faef420bfe791d8c362d765e2270060405160405180910390a35b5b50565b6000600360009054906101000a900473ffffffffffffffffffffffffffffffffffffffff16905081600360006101000a81548173ffffffffffffffffffffffffffffffffffffffff021916908373ffffffffffffffffffffffffffffffffffffffff1602179055508173ffffffffffffffffffffffffffffffffffffffff168173ffffffffffffffffffffffffffffffffffffffff167f8be0079c531659141344cd1fd0a4f28419497f9722a3daafe3b4186f6b6457e060405160405180910390a3505b50565b60008282604051602001808363ffffffff1660e01b81526004018260001916815260200192505050604051602081830303815290604052805190602001209050612103565b92915050565b61211761223063ffffffff16565b73ffffffffffffffffffffffffffffffffffffffff1661213b61160463ffffffff16565b73ffffffffffffffffffffffffffffffffffffffff161415156121c9576040517f08c379a00000000000000000000000000000000000000000000000000000000081526004018080602001828103825260208152602001807f4f776e61626c653a2063616c6c6572206973206e6f7420746865206f776e657281526020015060200191505060405180910390fd5b5b565b600060006121e084846120be63ffffffff16565b905060016000506000826000191660001916815260200190815260200160002060009054906101000a900473ffffffffffffffffffffffffffffffffffffffff1691505061222a56505b92915050565b600033905061223a565b90565b600460006101000a81549073ffffffffffffffffffffffffffffffffffffffff021916905561227181611ff763ffffffff16565b5b50565b6000600073ffffffffffffffffffffffffffffffffffffffff16600760009054906101000a900473ffffffffffffffffffffffffffffffffffffffff1673ffffffffffffffffffffffffffffffffffffffff16141580156123235750600760009054906101000a900473ffffffffffffffffffffffffffffffffffffffff1673ffffffffffffffffffffffffffffffffffffffff163373ffffffffffffffffffffffffffffffffffffffff16145b905061232a565b90565b6123d08363a9059cbb60e01b8484604051602401808373ffffffffffffffffffffffffffffffffffffffff16815260200182815260200192505050604051602081830303815290604052907bffffffffffffffffffffffffffffffffffffffffffffffffffffffff19166020820180517bffffffffffffffffffffffffffffffffffffffffffffffffffffffff838183161783525050505061251063ffffffff16565b5b505050565b600073ffffffffffffffffffffffffffffffffffffffff168173ffffffffffffffffffffffffffffffffffffffff161415151561247e576040517f08c379a00000000000000000000000000000000000000000000000000000000081526004018080602001828103825260208152602001807f496e76616c696420746f6b656e20636f6e74726f6c6c6572206164647265737381526020015060200191505060405180910390fd5b80600260006101000a81548173ffffffffffffffffffffffffffffffffffffffff021916908373ffffffffffffffffffffffffffffffffffffffff1602179055507fbc661161c0cbda8d30350f565f4a00497983a8204ce97d977fa633359160b07581604051808273ffffffffffffffffffffffffffffffffffffffff16815260200191505060405180910390a15b50565b6000612575826040518060400160405280602081526020017f5361666545524332303a206c6f772d6c6576656c2063616c6c206661696c65648152602001508573ffffffffffffffffffffffffffffffffffffffff166126069092919063ffffffff16565b9050600081511115612600578080602001905160208110156125975760006000fd5b810190808051906020019092919050505015156125ff576040517f08c379a000000000000000000000000000000000000000000000000000000000815260040180806020018281038252602a8152602001806129c9602a913960400191505060405180910390fd5b5b505b5050565b606061261b848460008561262963ffffffff16565b9050612622565b9392505050565b6060824710151515612686576040517f08c379a000000000000000000000000000000000000000000000000000000000815260040180806020018281038252602681526020018061295d6026913960400191505060405180910390fd5b612695856127ef63ffffffff16565b151561270c576040517f08c379a000000000000000000000000000000000000000000000000000000000815260040180806020018281038252601d8152602001807f416464726573733a2063616c6c20746f206e6f6e2d636f6e747261637400000081526020015060200191505060405180910390fd5b600060008673ffffffffffffffffffffffffffffffffffffffff1685876040518082805190602001908083835b60208310151561275f57805182525b602082019150602081019050602083039250612739565b6001836020036101000a03801982511681845116808217855250505050505090500191505060006040518083038185875af1925050503d80600081146127c1576040519150601f19603f3d011682016040523d82523d6000602084013e6127c6565b606091505b50915091506127dc82828661280963ffffffff16565b925050506127e75650505b949350505050565b60006000823b90506000811191505061280456505b919050565b6060831561281d578290506128da566128d9565b6000835111156128355782518084602001fd506128d8565b816040517f08c379a00000000000000000000000000000000000000000000000000000000081526004018080602001828103825283818151815260200191508051906020019080838360005b8381101561289d5780820151818401525b602081019050612881565b50505050905090810190601f1680156128ca5780820380516001836020036101000a031916815260200191505b509250505060405180910390fd5b5b5b939250505056fe5061757361626c653a206e65772070617573657220697320746865207a65726f20616464726573734f776e61626c6532537465703a2063616c6c6572206973206e6f7420746865206e6577206f776e6572526573637561626c653a206e6577207265736375657220697320746865207a65726f2061646472657373416464726573733a20696e73756666696369656e742062616c616e636520666f722063616c6c526573637561626c653a2063616c6c6572206973206e6f742074686520726573637565725061757361626c653a2063616c6c6572206973206e6f7420746865207061757365725361666545524332303a204552433230206f7065726174696f6e20646964206e6f742073756363656564a264697066735822122057f5647c9b59397ddd73e0c7f90dda7da7d7b8fb4ab0d69d54cb980b3c60483e64736f6c63430007060033","linkReferences":{}},"methodIdentifiers":{"acceptOwnership()":"79ba5097","addLocalTokenMessenger(address)":"36a816da","burn(address,uint256)":"9dc29fac","burnLimitsPerMessage(address)":"a56ec632","getLocalToken(uint32,bytes32)":"78a0565e","linkTokenPair(address,uint32,bytes32)":"2b2b90e1","localTokenMessenger()":"770fc1f0","mint(uint32,bytes32,address,uint256)":"d54de06f","owner()":"8da5cb5b","pause()":"8456cb59","paused()":"5c975abb","pauser()":"9fd0506d","pendingOwner()":"e30c3978","remoteTokensToLocalTokens(bytes32)":"eed3b9da","removeLocalTokenMessenger()":"cec74c03","rescueERC20(address,address,uint256)":"b2118a8d","rescuer()":"38a63183","setMaxBurnAmountPerMessage(address,uint256)":"7235ea0c","setTokenController(address)":"e102baab","tokenController()":"eddd9d82","transferOwnership(address)":"f2fde38b","unlinkTokenPair(address,uint32,bytes32)":"11b35fa4","unpause()":"3f4ba83a","updatePauser(address)":"554bab3c","updateRescuer(address)":"2ab60045"},"id":18}