{"abi":[{"type":"constructor","inputs":[{"name":"_messageTransmitter","type":"address","internalType":"address"},{"name":"_messageBodyVersion","type":"uint32","internalType":"uint32"}],"stateMutability":"nonpayable"},{"type":"function","name":"acceptOwnership","inputs":[],"outputs":[],"stateMutability":"nonpayable"},{"type":"function","name":"addLocalMinter","inputs":[{"name":"newLocalMinter","type":"address","internalType":"address"}],"outputs":[],"stateMutability":"nonpayable"},{"type":"function","name":"addRemoteTokenMessenger","inputs":[{"name":"domain","type":"uint32","internalType":"uint32"},{"name":"tokenMessenger","type":"bytes32","internalType":"bytes32"}],"outputs":[],"stateMutability":"nonpayable"},{"type":"function","name":"depositForBurn","inputs":[{"name":"amount","type":"uint256","internalType":"uint256"},{"name":"destinationDomain","type":"uint32","internalType":"uint32"},{"name":"mintRecipient","type":"bytes32","internalType":"bytes32"},{"name":"burnToken","type":"address","internalType":"address"}],"outputs":[{"name":"_nonce","type":"uint64","internalType":"uint64"}],"stateMutability":"nonpayable"},{"type":"function","name":"depositForBurnWithCaller","inputs":[{"name":"amount","type":"uint256","internalType":"uint256"},{"name":"destinationDomain","type":"uint32","internalType":"uint32"},{"name":"mintRecipient","type":"bytes32","internalType":"bytes32"},{"name":"burnToken","type":"address","internalType":"address"},{"name":"destinationCaller","type":"bytes32","internalType":"bytes32"}],"outputs":[{"name":"nonce","type":"uint64","internalType":"uint64"}],"stateMutability":"nonpayable"},{"type":"function","name":"handleReceiveMessage","inputs":[{"name":"remoteDomain","type":"uint32","internalType":"uint32"},{"name":"sender","type":"bytes32","internalType":"bytes32"},{"name":"messageBody","type":"bytes","internalType":"bytes"}],"outputs":[{"name":"","type":"bool","internalType":"bool"}],"stateMutability":"nonpayable"},{"type":"function","name":"localMessageTransmitter","inputs":[],"outputs":[{"name":"","type":"address","internalType":"contract IMessageTransmitter"}],"stateMutability":"view"},{"type":"function","name":"localMinter","inputs":[],"outputs":[{"name":"","type":"address","internalType":"contract ITokenMinter"}],"stateMutability":"view"},{"type":"function","name":"messageBodyVersion","inputs":[],"outputs":[{"name":"","type":"uint32","internalType":"uint32"}],"stateMutability":"view"},{"type":"function","name":"owner","inputs":[],"outputs":[{"name":"","type":"address","internalType":"address"}],"stateMutability":"view"},{"type":"function","name":"pendingOwner","inputs":[],"outputs":[{"name":"","type":"address","internalType":"address"}],"stateMutability":"view"},{"type":"function","name":"remoteTokenMessengers","inputs":[{"name":"","type":"uint32","internalType":"uint32"}],"outputs":[{"name":"","type":"bytes32","internalType":"bytes32"}],"stateMutability":"view"},{"type":"function","name":"removeLocalMinter","inputs":[],"outputs":[],"stateMutability":"nonpayable"},{"type":"function","name":"removeRemoteTokenMessenger","inputs":[{"name":"domain","type":"uint32","internalType":"uint32"}],"outputs":[],"stateMutability":"nonpayable"},{"type":"function","name":"replaceDepositForBurn","inputs":[{"name":"originalMessage","type":"bytes","internalType":"bytes"},{"name":"originalAttestation","type":"bytes","internalType":"bytes"},{"name":"newDestinationCaller","type":"bytes32","internalType":"bytes32"},{"name":"newMintRecipient","type":"bytes32","internalType":"bytes32"}],"outputs":[],"stateMutability":"nonpayable"},{"type":"function","name":"rescueERC20","inputs":[{"name":"tokenContract","type":"address","internalType":"contract IERC20"},{"name":"to","type":"address","internalType":"address"},{"name":"amount","type":"uint256","internalType":"uint256"}],"outputs":[],"stateMutability":"nonpayable"},{"type":"function","name":"rescuer","inputs":[],"outputs":[{"name":"","type":"address","internalType":"address"}],"stateMutability":"view"},{"type":"function","name":"transferOwnership","inputs":[{"name":"newOwner","type":"address","internalType":"address"}],"outputs":[],"stateMutability":"nonpayable"},{"type":"function","name":"updateRescuer","inputs":[{"name":"newRescuer","type":"address","internalType":"address"}],"outputs":[],"stateMutability":"nonpayable"},{"type":"event","name":"DepositForBurn","inputs":[{"name":"nonce","type":"uint64","indexed":true,"internalType":"uint64"},{"name":"burnToken","type":"address","indexed":true,"internalType":"address"},{"name":"amount","type":"uint256","indexed":false,"internalType":"uint256"},{"name":"depositor","type":"address","indexed":true,"internalType":"address"},{"name":"mintRecipient","type":"bytes32","indexed":false,"internalType":"bytes32"},{"name":"destinationDomain","type":"uint32","indexed":false,"internalType":"uint32"},{"name":"destinationTokenMessenger","type":"bytes32","indexed":false,"internalType":"bytes32"},{"name":"destinationCaller","type":"bytes32","indexed":false,"internalType":"bytes32"}],"anonymous":false},{"type":"event","name":"LocalMinterAdded","inputs":[{"name":"localMinter","type":"address","indexed":false,"internalType":"address"}],"anonymous":false},{"type":"event","name":"LocalMinterRemoved","inputs":[{"name":"localMinter","type":"address","indexed":false,"internalType":"address"}],"anonymous":false},{"type":"event","name":"MintAndWithdraw","inputs":[{"name":"mintRecipient","type":"address","indexed":true,"internalType":"address"},{"name":"amount","type":"uint256","indexed":false,"internalType":"uint256"},{"name":"mintToken","type":"address","indexed":true,"internalType":"address"}],"anonymous":false},{"type":"event","name":"OwnershipTransferStarted","inputs":[{"name":"previousOwner","type":"address","indexed":true,"internalType":"address"},{"name":"newOwner","type":"address","indexed":true,"internalType":"address"}],"anonymous":false},{"type":"event","name":"OwnershipTransferred","inputs":[{"name":"previousOwner","type":"address","indexed":true,"internalType":"address"},{"name":"newOwner","type":"address","indexed":true,"internalType":"address"}],"anonymous":false},{"type":"event","name":"RemoteTokenMessengerAdded","inputs":[{"name":"domain","type":"uint32","indexed":false,"internalType":"uint32"},{"name":"tokenMessenger","type":"bytes32","indexed":false,"internalType":"bytes32"}],"anonymous":false},{"type":"event","name":"RemoteTokenMessengerRemoved","inputs":[{"name":"domain","type":"uint32","indexed":false,"internalType":"uint32"},{"name":"tokenMessenger","type":"bytes32","indexed":false,"internalType":"bytes32"}],"anonymous":false},{"type":"event","name":"RescuerChanged","inputs":[{"name":"newRescuer","type":"address","indexed":true,"internalType":"address"}],"anonymous":false}],"bytecode":{"object":"0x60c0604052348015620000125760006000fd5b50604051620040c9380380620040c983398181016040526040811015620000395760006000fd5b8101908080519060200190929190805190602001909291905050505b5b620000766200006a6200017d60201b60201c565b6200018b60201b60201c565b5b600073ffffffffffffffffffffffffffffffffffffffff168273ffffffffffffffffffffffffffffffffffffffff161415151562000120576040517f08c379a000000000000000000000000000000000000000000000000000000000815260040180806020018281038252601a8152602001807f4d6573736167655472616e736d6974746572206e6f742073657400000000000081526020015060200191505060405180910390fd5b8173ffffffffffffffffffffffffffffffffffffffff1660808173ffffffffffffffffffffffffffffffffffffffff1660601b815260140150508063ffffffff1660a08163ffffffff1660e01b815260040150505b505062000291565b600033905062000188565b90565b600160006101000a81549073ffffffffffffffffffffffffffffffffffffffff0219169055620001c681620001ca60201b62001c261760201c565b5b50565b6000600060009054906101000a900473ffffffffffffffffffffffffffffffffffffffff16905081600060006101000a81548173ffffffffffffffffffffffffffffffffffffffff021916908373ffffffffffffffffffffffffffffffffffffffff1602179055508173ffffffffffffffffffffffffffffffffffffffff168173ffffffffffffffffffffffffffffffffffffffff167f8be0079c531659141344cd1fd0a4f28419497f9722a3daafe3b4186f6b6457e060405160405180910390a3505b50565b60805160601c60a05160e01c613de6620002e3600039806109f152806114725280611653528061252b525080610a235280610e2c52806127d3528061281352806130aa52806131e65250613de66000f3fe60806040523480156100115760006000fd5b50600436106101265760003560e01c806391f17888116100ae578063da87e44811610072578063da87e448146105ad578063e30c3978146105f0578063f2fde38b14610624578063f79fd08e14610669578063f856ddb61461069e57610126565b806391f178881461042957806396abeb70146104335780639cdbb181146104e6578063b2118a8d1461050a578063cb75c11c1461057957610126565b80636fd3504e116100f55780636fd3504e146102ce57806379ba5097146103595780638197beb91461036357806382a5e665146103a85780638da5cb5b146103f557610126565b806329a78e331461012c5780632ab60045146102215780632c1219211461026657806338a631831461029a57610126565b60006000fd5b61021f600480360360808110156101435760006000fd5b81019080803590602001906401000000008111156101615760006000fd5b8201836020820111156101745760006000fd5b803590602001918460018302840111640100000000831117156101975760006000fd5b90919293909091929390803590602001906401000000008111156101bb5760006000fd5b8201836020820111156101ce5760006000fd5b803590602001918460018302840111640100000000831117156101f15760006000fd5b9091929390909192939080356000191690602001909291908035600019169060200190929190505050610737565b005b610264600480360360208110156102385760006000fd5b81019080803573ffffffffffffffffffffffffffffffffffffffff169060200190929190505050610d0b565b005b61026e610e2a565b604051808273ffffffffffffffffffffffffffffffffffffffff16815260200191505060405180910390f35b6102a2610e4e565b604051808273ffffffffffffffffffffffffffffffffffffffff16815260200191505060405180910390f35b610339600480360360808110156102e55760006000fd5b8101908080359060200190929190803563ffffffff1690602001909291908035600019169060200190929190803573ffffffffffffffffffffffffffffffffffffffff169060200190929190505050610e7d565b604051808267ffffffffffffffff16815260200191505060405180910390f35b610361610ea5565b005b6103a66004803603602081101561037a5760006000fd5b81019080803573ffffffffffffffffffffffffffffffffffffffff169060200190929190505050610f5d565b005b6103db600480360360208110156103bf5760006000fd5b81019080803563ffffffff16906020019092919050505061116f565b604051808260001916815260200191505060405180910390f35b6103fd61118a565b604051808273ffffffffffffffffffffffffffffffffffffffff16815260200191505060405180910390f35b6104316111b9565b005b6104ce6004803603606081101561044a5760006000fd5b81019080803563ffffffff1690602001909291908035600019169060200190929190803590602001906401000000008111156104865760006000fd5b8201836020820111156104995760006000fd5b803590602001918460018302840111640100000000831117156104bc5760006000fd5b9091929390909192939050505061130d565b60405180821515815260200191505060405180910390f35b6104ee611651565b604051808263ffffffff16815260200191505060405180910390f35b610577600480360360608110156105215760006000fd5b81019080803573ffffffffffffffffffffffffffffffffffffffff169060200190929190803573ffffffffffffffffffffffffffffffffffffffff16906020019092919080359060200190929190505050611675565b005b61058161174f565b604051808273ffffffffffffffffffffffffffffffffffffffff16815260200191505060405180910390f35b6105ee600480360360408110156105c45760006000fd5b81019080803563ffffffff1690602001909291908035600019169060200190929190505050611775565b005b6105f8611934565b604051808273ffffffffffffffffffffffffffffffffffffffff16815260200191505060405180910390f35b6106676004803603602081101561063b5760006000fd5b81019080803573ffffffffffffffffffffffffffffffffffffffff169060200190929190505050611963565b005b61069c600480360360208110156106805760006000fd5b81019080803563ffffffff169060200190929190505050611a1e565b005b610717600480360360a08110156106b55760006000fd5b8101908080359060200190929190803563ffffffff1690602001909291908035600019169060200190929190803573ffffffffffffffffffffffffffffffffffffffff1690602001909291908035600019169060200190929190505050611b7a565b604051808267ffffffffffffffff16815260200191505060405180910390f35b6000610791600088888080601f016020809104026020016040519081016040528093929190818152602001838380828437600081840152601f19601f82011690508083019250505050505050611ced90919063ffffffff16565b90506107aa8162ffffff1916611d26909063ffffffff16565b60006107c38262ffffff1916611e5b909063ffffffff16565b90506107dc8162ffffff1916611eb5909063ffffffff16565b60006107f58262ffffff1916611fe9909063ffffffff16565b905073__$8c977731748aa4504deed57239565df533$__635ced058e826040518263ffffffff1660e01b8152600401808260001916815260200191505060206040518083038186803b15801561084b5760006000fd5b505af4158015610860573d600060003e3d6000fd5b505050506040513d60208110156108775760006000fd5b810190808051906020019092919050505073ffffffffffffffffffffffffffffffffffffffff163373ffffffffffffffffffffffffffffffffffffffff1614151561092d576040517f08c379a000000000000000000000000000000000000000000000000000000000815260040180806020018281038252601a8152602001807f496e76616c69642073656e64657220666f72206d65737361676500000000000081526020015060200191505060405180910390fd5b600060001b600019168460001916141515156109b4576040517f08c379a000000000000000000000000000000000000000000000000000000000815260040180806020018281038252601e8152602001807f4d696e7420726563697069656e74206d757374206265206e6f6e7a65726f000081526020015060200191505060405180910390fd5b60006109cd8362ffffff1916612017909063ffffffff16565b905060006109e88462ffffff1916612045909063ffffffff16565b90506000610a1f7f00000000000000000000000000000000000000000000000000000000000000008489858861207363ffffffff16565b90507f000000000000000000000000000000000000000000000000000000000000000073ffffffffffffffffffffffffffffffffffffffff1663b857b7748d8d8d8d868e6040518763ffffffff1660e01b8152600401808060200180602001806020018560001916815260200184810384528a8a82818152602001925080828437600081840152601f19601f8201169050808301925050508481038352888882818152602001925080828437600081840152601f19601f820116905080830192505050848103825286818151815260200191508051906020019080838360005b83811015610b1b5780820151818401525b602081019050610aff565b50505050905090810190601f168015610b485780820380516001836020036101000a031916815260200191505b509950505050505050505050600060405180830381600087803b158015610b6f5760006000fd5b505af1158015610b84573d600060003e3d6000fd5b505050503373ffffffffffffffffffffffffffffffffffffffff1673__$8c977731748aa4504deed57239565df533$__635ced058e856040518263ffffffff1660e01b8152600401808260001916815260200191505060206040518083038186803b158015610bf35760006000fd5b505af4158015610c08573d600060003e3d6000fd5b505050506040513d6020811015610c1f5760006000fd5b810190808051906020019092919050505073ffffffffffffffffffffffffffffffffffffffff16610c5d8862ffffff19166120da909063ffffffff16565b67ffffffffffffffff167f2fa9ca894982930190727e75500a97d8dc500233a5065e0f3126c48fbe0343c0858b610ca18c62ffffff1916612108909063ffffffff16565b610cb88d62ffffff1916612136909063ffffffff16565b8f60405180868152602001856000191681526020018463ffffffff16815260200183600019168152602001826000191681526020019550505050505060405180910390a45050505050505b505050505050565b610d1961216463ffffffff16565b600073ffffffffffffffffffffffffffffffffffffffff168173ffffffffffffffffffffffffffffffffffffffff1614151515610da1576040517f08c379a000000000000000000000000000000000000000000000000000000000815260040180806020018281038252602a815260200180613c62602a913960400191505060405180910390fd5b80600260006101000a81548173ffffffffffffffffffffffffffffffffffffffff021916908373ffffffffffffffffffffffffffffffffffffffff1602179055508073ffffffffffffffffffffffffffffffffffffffff167fe475e580d85111348e40d8ca33cfdd74c30fe1655c2d8537a13abc10065ffa5a60405160405180910390a25b5b50565b7f000000000000000000000000000000000000000000000000000000000000000081565b6000600260009054906101000a900473ffffffffffffffffffffffffffffffffffffffff169050610e7a565b90565b6000610e9685858585600060001b61222763ffffffff16565b9050610e9d565b949350505050565b6000610eb561277263ffffffff16565b90508073ffffffffffffffffffffffffffffffffffffffff16610edc61193463ffffffff16565b73ffffffffffffffffffffffffffffffffffffffff16141515610f4a576040517f08c379a0000000000000000000000000000000000000000000000000000000008152600401808060200182810382526029815260200180613c396029913960400191505060405180910390fd5b610f598161277f63ffffffff16565b505b565b610f6b61216463ffffffff16565b600073ffffffffffffffffffffffffffffffffffffffff168173ffffffffffffffffffffffffffffffffffffffff1614151515611013576040517f08c379a00000000000000000000000000000000000000000000000000000000081526004018080602001828103825260188152602001807f5a65726f2061646472657373206e6f7420616c6c6f776564000000000000000081526020015060200191505060405180910390fd5b600073ffffffffffffffffffffffffffffffffffffffff16600360009054906101000a900473ffffffffffffffffffffffffffffffffffffffff1673ffffffffffffffffffffffffffffffffffffffff161415156110dc576040517f08c379a000000000000000000000000000000000000000000000000000000000815260040180806020018281038252601c8152602001807f4c6f63616c206d696e74657220697320616c7265616479207365742e0000000081526020015060200191505060405180910390fd5b80600360006101000a81548173ffffffffffffffffffffffffffffffffffffffff021916908373ffffffffffffffffffffffffffffffffffffffff1602179055507f109bb3e70cbf1931e295b49e75c67013b85ff80d64e6f1d321f37157b90c383081604051808273ffffffffffffffffffffffffffffffffffffffff16815260200191505060405180910390a15b5b50565b60046000506020528060005260406000206000915090505481565b6000600060009054906101000a900473ffffffffffffffffffffffffffffffffffffffff1690506111b6565b90565b6111c761216463ffffffff16565b6000600360009054906101000a900473ffffffffffffffffffffffffffffffffffffffff169050600073ffffffffffffffffffffffffffffffffffffffff168173ffffffffffffffffffffffffffffffffffffffff1614151515611296576040517f08c379a00000000000000000000000000000000000000000000000000000000081526004018080602001828103825260178152602001807f4e6f206c6f63616c206d696e746572206973207365742e00000000000000000081526020015060200191505060405180910390fd5b600360006101000a81549073ffffffffffffffffffffffffffffffffffffffff02191690557f2db49fbf671271826a27b02ebc496209c85fffffb4bccc67430d2a0f22b4d1ac81604051808273ffffffffffffffffffffffffffffffffffffffff16815260200191505060405180910390a1505b5b565b600061131d6127b763ffffffff16565b1515611394576040517f08c379a000000000000000000000000000000000000000000000000000000000815260040180806020018281038252601b8152602001807f496e76616c6964206d657373616765207472616e736d6974746572000000000081526020015060200191505060405180910390fd5b84846113a6828261286b63ffffffff16565b15156113fd576040517f08c379a0000000000000000000000000000000000000000000000000000000008152600401808060200182810382526021815260200180613c8c6021913960400191505060405180910390fd5b6000611457600087878080601f016020809104026020016040519081016040528093929190818152602001838380828437600081840152601f19601f82011690508083019250505050505050611ced90919063ffffffff16565b90506114708162ffffff1916611eb5909063ffffffff16565b7f000000000000000000000000000000000000000000000000000000000000000063ffffffff166114ae8262ffffff19166128c2909063ffffffff16565b63ffffffff1614151561152c576040517f08c379a000000000000000000000000000000000000000000000000000000000815260040180806020018281038252601c8152602001807f496e76616c6964206d65737361676520626f64792076657273696f6e0000000081526020015060200191505060405180910390fd5b60006115458262ffffff19166128f0909063ffffffff16565b905060006115608362ffffff1916612017909063ffffffff16565b9050600061157b8462ffffff1916612045909063ffffffff16565b9050600061158d61291e63ffffffff16565b9050611632818d8573__$8c977731748aa4504deed57239565df533$__635ced058e896040518263ffffffff1660e01b8152600401808260001916815260200191505060206040518083038186803b1580156115e95760006000fd5b505af41580156115fe573d600060003e3d6000fd5b505050506040513d60208110156116155760006000fd5b810190808051906020019092919050505086612a1763ffffffff16565b6001975050505050506116455650505050505b5b50505b949350505050565b7f000000000000000000000000000000000000000000000000000000000000000081565b600260009054906101000a900473ffffffffffffffffffffffffffffffffffffffff1673ffffffffffffffffffffffffffffffffffffffff163373ffffffffffffffffffffffffffffffffffffffff1614151561171d576040517f08c379a0000000000000000000000000000000000000000000000000000000008152600401808060200182810382526024815260200180613cf46024913960400191505060405180910390fd5b61174882828573ffffffffffffffffffffffffffffffffffffffff16612b589092919063ffffffff16565b5b5b505050565b600360009054906101000a900473ffffffffffffffffffffffffffffffffffffffff1681565b61178361216463ffffffff16565b600060001b6000191681600019161415151561180a576040517f08c379a00000000000000000000000000000000000000000000000000000000081526004018080602001828103825260168152602001807f62797465733332283029206e6f7420616c6c6f7765640000000000000000000081526020015060200191505060405180910390fd5b600060001b60001916600460005060008463ffffffff1663ffffffff16815260200190815260200160002060005054600019161415156118b5576040517f08c379a000000000000000000000000000000000000000000000000000000000815260040180806020018281038252601a8152602001807f546f6b656e4d657373656e67657220616c72656164792073657400000000000081526020015060200191505060405180910390fd5b80600460005060008463ffffffff1663ffffffff168152602001908152602001600020600050819090600019169055507f4bba2b08298cf59661b4895e384cc2ac3962ce2d71f1b7c11bca52e1169f95998282604051808363ffffffff168152602001826000191681526020019250505060405180910390a15b5b5050565b6000600160009054906101000a900473ffffffffffffffffffffffffffffffffffffffff169050611960565b90565b61197161216463ffffffff16565b80600160006101000a81548173ffffffffffffffffffffffffffffffffffffffff021916908373ffffffffffffffffffffffffffffffffffffffff1602179055508073ffffffffffffffffffffffffffffffffffffffff166119d761118a63ffffffff16565b73ffffffffffffffffffffffffffffffffffffffff167f38d16b8cac22d99fc7c124b9cd0de2d3fa1faef420bfe791d8c362d765e2270060405160405180910390a35b5b50565b611a2c61216463ffffffff16565b600060001b60001916600460005060008363ffffffff1663ffffffff168152602001908152602001600020600050546000191614151515611ad8576040517f08c379a00000000000000000000000000000000000000000000000000000000081526004018080602001828103825260158152602001807f4e6f20546f6b656e4d657373656e67657220736574000000000000000000000081526020015060200191505060405180910390fd5b6000600460005060008363ffffffff1663ffffffff168152602001908152602001600020600050549050600460005060008363ffffffff1663ffffffff168152602001908152602001600020600050600090557f3dcea012093dbca2bb8ed7fd2b2ff90305ab70bddda8bbb94d4152735a98f0b18282604051808363ffffffff168152602001826000191681526020019250505060405180910390a1505b5b50565b6000600060001b60001916826000191614151515611c03576040517f08c379a000000000000000000000000000000000000000000000000000000000815260040180806020018281038252601a8152602001807f496e76616c69642064657374696e6174696f6e2063616c6c657200000000000081526020015060200191505060405180910390fd5b611c16868686868661222763ffffffff16565b9050611c1d565b95945050505050565b6000600060009054906101000a900473ffffffffffffffffffffffffffffffffffffffff16905081600060006101000a81548173ffffffffffffffffffffffffffffffffffffffff021916908373ffffffffffffffffffffffffffffffffffffffff1602179055508173ffffffffffffffffffffffffffffffffffffffff168173ffffffffffffffffffffffffffffffffffffffff167f8be0079c531659141344cd1fd0a4f28419497f9722a3daafe3b4186f6b6457e060405160405180910390a3505b50565b60006000835190506000602085019050611d158464ffffffffff168284612c0163ffffffff16565b92505050611d205650505b92915050565b611d3d8162ffffff1916612c79909063ffffffff16565b1515611db4576040517f08c379a00000000000000000000000000000000000000000000000000000000081526004018080602001828103825260118152602001807f4d616c666f726d6564206d65737361676500000000000000000000000000000081526020015060200191505060405180910390fd5b607460ff16611dd08262ffffff1916612cc8909063ffffffff16565b6bffffffffffffffffffffffff1610151515611e57576040517f08c379a000000000000000000000000000000000000000000000000000000000815260040180806020018281038252601a8152602001807f496e76616c6964206d6573736167653a20746f6f2073686f727400000000000081526020015060200191505060405180910390fd5b5b50565b6000611ea9607460ff16607460ff16611e818562ffffff1916612cc8909063ffffffff16565b036bffffffffffffffffffffffff1660008562ffffff1916612cea909392919063ffffffff16565b9050611eb0565b919050565b611ecc8162ffffff1916612c79909063ffffffff16565b1515611f43576040517f08c379a00000000000000000000000000000000000000000000000000000000081526004018080602001828103825260118152602001807f4d616c666f726d6564206d65737361676500000000000000000000000000000081526020015060200191505060405180910390fd5b608460ff16611f5f8262ffffff1916612cc8909063ffffffff16565b6bffffffffffffffffffffffff16141515611fe5576040517f08c379a00000000000000000000000000000000000000000000000000000000081526004018080602001828103825260168152602001807f496e76616c6964206d657373616765206c656e6774680000000000000000000081526020015060200191505060405180910390fd5b5b50565b600061200b606460ff1660208462ffffff1916612db09092919063ffffffff16565b9050612012565b919050565b6000612039600460ff1660208462ffffff1916612db09092919063ffffffff16565b9050612040565b919050565b6000612067604460ff1660208462ffffff1916612fa09092919063ffffffff16565b905061206e565b919050565b60608585858585604051602001808663ffffffff1660e01b81526004018560001916815260200184600019168152602001838152602001826000191681526020019550505050505060405160208183030381529060405290506120d1565b95945050505050565b60006120fc600c60ff1660088462ffffff1916612fa09092919063ffffffff16565b9050612103565b919050565b600061212a600860ff1660048462ffffff1916612fa09092919063ffffffff16565b9050612131565b919050565b6000612158603460ff1660208462ffffff1916612db09092919063ffffffff16565b905061215f565b919050565b61217261277263ffffffff16565b73ffffffffffffffffffffffffffffffffffffffff1661219661118a63ffffffff16565b73ffffffffffffffffffffffffffffffffffffffff16141515612224576040517f08c379a00000000000000000000000000000000000000000000000000000000081526004018080602001828103825260208152602001807f4f776e61626c653a2063616c6c6572206973206e6f7420746865206f776e657281526020015060200191505060405180910390fd5b5b565b60006000861115156122a4576040517f08c379a00000000000000000000000000000000000000000000000000000000081526004018080602001828103825260168152602001807f416d6f756e74206d757374206265206e6f6e7a65726f0000000000000000000081526020015060200191505060405180910390fd5b600060001b6000191684600019161415151561232b576040517f08c379a000000000000000000000000000000000000000000000000000000000815260040180806020018281038252601e8152602001807f4d696e7420726563697069656e74206d757374206265206e6f6e7a65726f000081526020015060200191505060405180910390fd5b600061233c86612fd063ffffffff16565b9050600061234e61291e63ffffffff16565b905060008590508073ffffffffffffffffffffffffffffffffffffffff166323b872dd33848c6040518463ffffffff1660e01b8152600401808473ffffffffffffffffffffffffffffffffffffffff1681526020018373ffffffffffffffffffffffffffffffffffffffff1681526020018281526020019350505050602060405180830381600087803b1580156123e55760006000fd5b505af11580156123fa573d600060003e3d6000fd5b505050506040513d60208110156124115760006000fd5b81019080805190602001909291905050501515612499576040517f08c379a00000000000000000000000000000000000000000000000000000000081526004018080602001828103825260198152602001807f5472616e73666572206f7065726174696f6e206661696c65640000000000000081526020015060200191505060405180910390fd5b8173ffffffffffffffffffffffffffffffffffffffff16639dc29fac878b6040518363ffffffff1660e01b8152600401808373ffffffffffffffffffffffffffffffffffffffff16815260200182815260200192505050600060405180830381600087803b15801561250b5760006000fd5b505af1158015612520573d600060003e3d6000fd5b50505050600061269d7f000000000000000000000000000000000000000000000000000000000000000073__$8c977731748aa4504deed57239565df533$__6382c947b78a6040518263ffffffff1660e01b8152600401808273ffffffffffffffffffffffffffffffffffffffff16815260200191505060206040518083038186803b1580156125b05760006000fd5b505af41580156125c5573d600060003e3d6000fd5b505050506040513d60208110156125dc5760006000fd5b81019080805190602001909291905050508a8d73__$8c977731748aa4504deed57239565df533$__6382c947b7336040518263ffffffff1660e01b8152600401808273ffffffffffffffffffffffffffffffffffffffff16815260200191505060206040518083038186803b1580156126555760006000fd5b505af415801561266a573d600060003e3d6000fd5b505050506040513d60208110156126815760006000fd5b810190808051906020019092919050505061207363ffffffff16565b905060006126b38a86898561309263ffffffff16565b90503373ffffffffffffffffffffffffffffffffffffffff168873ffffffffffffffffffffffffffffffffffffffff168267ffffffffffffffff167f2fa9ca894982930190727e75500a97d8dc500233a5065e0f3126c48fbe0343c08e8d8f8b8e60405180868152602001856000191681526020018463ffffffff16815260200183600019168152602001826000191681526020019550505050505060405180910390a480955050505050506127695650505050505b95945050505050565b600033905061277c565b90565b600160006101000a81549073ffffffffffffffffffffffffffffffffffffffff02191690556127b381611c2663ffffffff16565b5b50565b6000600073ffffffffffffffffffffffffffffffffffffffff167f000000000000000000000000000000000000000000000000000000000000000073ffffffffffffffffffffffffffffffffffffffff161415801561286157507f000000000000000000000000000000000000000000000000000000000000000073ffffffffffffffffffffffffffffffffffffffff163373ffffffffffffffffffffffffffffffffffffffff16145b9050612868565b90565b6000600060001b600019168260001916141580156128b557508160001916600460005060008563ffffffff1663ffffffff1681526020019081526020016000206000505460001916145b90506128bc565b92915050565b60006128e4600060ff1660048462ffffff1916612fa09092919063ffffffff16565b90506128eb565b919050565b6000612912602460ff1660208462ffffff1916612db09092919063ffffffff16565b9050612919565b919050565b6000600073ffffffffffffffffffffffffffffffffffffffff16600360009054906101000a900473ffffffffffffffffffffffffffffffffffffffff1673ffffffffffffffffffffffffffffffffffffffff16141515156129ea576040517f08c379a00000000000000000000000000000000000000000000000000000000081526004018080602001828103825260178152602001807f4c6f63616c206d696e746572206973206e6f742073657400000000000000000081526020015060200191505060405180910390fd5b600360009054906101000a900473ffffffffffffffffffffffffffffffffffffffff169050612a14565b90565b600085905060008173ffffffffffffffffffffffffffffffffffffffff1663d54de06f878787876040518563ffffffff1660e01b8152600401808563ffffffff168152602001846000191681526020018373ffffffffffffffffffffffffffffffffffffffff168152602001828152602001945050505050602060405180830381600087803b158015612aaa5760006000fd5b505af1158015612abf573d600060003e3d6000fd5b505050506040513d6020811015612ad65760006000fd5b810190808051906020019092919050505090508073ffffffffffffffffffffffffffffffffffffffff168473ffffffffffffffffffffffffffffffffffffffff167f1b2a7ff080b8cb6ff436ce0372e399692bbfb6d4ae5766fd8d58a7b8cc6142e6856040518082815260200191505060405180910390a350505b5050505050565b612bfb8363a9059cbb60e01b8484604051602401808373ffffffffffffffffffffffffffffffffffffffff16815260200182815260200192505050604051602081830303815290604052907bffffffffffffffffffffffffffffffffffffffffffffffffffffffff19166020820180517bffffffffffffffffffffffffffffffffffffffffffffffffffffffff838183161783525050505061333163ffffffff16565b5b505050565b60006000612c18838561342790919063ffffffff16565b9050604051811115612c2957600090505b6000811415612c5b577fffffffffffffffffffffffffffffffffffffffffffffffffffffffffff000000915050612c72565b612c6c8585856134b963ffffffff16565b91508150505b9392505050565b600064ffffffffff612c90836134db63ffffffff16565b64ffffffffff161415612ca65760009050612cc3565b6000612cb7836134e963ffffffff16565b90506040518111199150505b919050565b600060006bffffffffffffffffffffffff9050808360181c169150505b919050565b60006000612cfd8661352463ffffffff16565b6bffffffffffffffffffffffff169050612d1c866134e963ffffffff16565b612d4185612d33888561342790919063ffffffff16565b61342790919063ffffffff16565b1115612d70577fffffffffffffffffffffffffffffffffffffffffffffffffffffffffff000000915050612da8565b612d83858261342790919063ffffffff16565b90508050612d9f8364ffffffffff168286612c0163ffffffff16565b915050612da856505b949350505050565b600060008260ff161415612dca57600060001b9050612f99565b612dd984612cc863ffffffff16565b6bffffffffffffffffffffffff16612dfd8360ff168561342790919063ffffffff16565b1115612ef257612e50612e158561352463ffffffff16565b6bffffffffffffffffffffffff16612e3286612cc863ffffffff16565b6bffffffffffffffffffffffff16858560ff1661354663ffffffff16565b6040517f08c379a00000000000000000000000000000000000000000000000000000000081526004018080602001828103825283818151815260200191508051906020019080838360005b83811015612eb75780820151818401525b602081019050612e9b565b50505050905090810190601f168015612ee45780820380516001836020036101000a031916815260200191505b509250505060405180910390fd5b60208260ff1611151515612f51576040517f08c379a000000000000000000000000000000000000000000000000000000000815260040180806020018281038252603a815260200180613d18603a913960400191505060405180910390fd5b60006008830290506000612f6a8661352463ffffffff16565b6bffffffffffffffffffffffff1690506000612f8b836136a463ffffffff16565b905080868301511693505050505b9392505050565b60006008826020030260ff16612fbd858585612db063ffffffff16565b60001c901c9050612fc9565b9392505050565b60006000600460005060008463ffffffff1663ffffffff168152602001908152602001600020600050549050600060001b60001916816000191614151515613083576040517f08c379a000000000000000000000000000000000000000000000000000000000815260040180806020018281038252601c8152602001807f4e6f20546f6b656e4d657373656e67657220666f7220646f6d61696e0000000081526020015060200191505060405180910390fd5b8091505061308d56505b919050565b6000600060001b60001916836000191614156131e4577f000000000000000000000000000000000000000000000000000000000000000073ffffffffffffffffffffffffffffffffffffffff16630ba469bc8686856040518463ffffffff1660e01b8152600401808463ffffffff1681526020018360001916815260200180602001828103825283818151815260200191508051906020019080838360005b8381101561314d5780820151818401525b602081019050613131565b50505050905090810190601f16801561317a5780820380516001836020036101000a031916815260200191505b50945050505050602060405180830381600087803b15801561319c5760006000fd5b505af11580156131b1573d600060003e3d6000fd5b505050506040513d60208110156131c85760006000fd5b8101908080519060200190929190505050905061332956613328565b7f000000000000000000000000000000000000000000000000000000000000000073ffffffffffffffffffffffffffffffffffffffff1663f7259a75868686866040518563ffffffff1660e01b8152600401808563ffffffff168152602001846000191681526020018360001916815260200180602001828103825283818151815260200191508051906020019080838360005b838110156132945780820151818401525b602081019050613278565b50505050905090810190601f1680156132c15780820380516001836020036101000a031916815260200191505b5095505050505050602060405180830381600087803b1580156132e45760006000fd5b505af11580156132f9573d600060003e3d6000fd5b505050506040513d60208110156133105760006000fd5b81019080805190602001909291905050509050613329565b5b949350505050565b6000613396826040518060400160405280602081526020017f5361666545524332303a206c6f772d6c6576656c2063616c6c206661696c65648152602001508573ffffffffffffffffffffffffffffffffffffffff166136d49092919063ffffffff16565b9050600081511115613421578080602001905160208110156133b85760006000fd5b81019080805190602001909291905050501515613420576040517f08c379a000000000000000000000000000000000000000000000000000000000815260040180806020018281038252602a815260200180613d52602a913960400191505060405180910390fd5b5b505b5050565b6000818301905080508281101515156134ab576040517f08c379a00000000000000000000000000000000000000000000000000000000081526004018080602001828103825260198152602001807f4f766572666c6f7720647572696e67206164646974696f6e2e0000000000000081526020015060200191505060405180910390fd5b8090506134b3565b92915050565b600083811760601b905082811760601b905081811760181b90505b9392505050565b60008160d81c90505b919050565b60006134fa82612cc863ffffffff16565b6135098361352463ffffffff16565b016bffffffffffffffffffffffff16905061351f565b919050565b600060006bffffffffffffffffffffffff9050808360781c169150505b919050565b60606000613559866136f763ffffffff16565b915050600061356d866136f763ffffffff16565b9150506000613581866136f763ffffffff16565b9150506000613595866136f763ffffffff16565b915050838383836040516020018080613d7c603591396035018565ffffffffffff1660d01b8152600601807f2077697468206c656e6774682030780000000000000000000000000000000000815260200150600f018465ffffffffffff1660d01b815260060180613cd3602191396021018365ffffffffffff1660d01b8152600601807f2077697468206c656e6774682030780000000000000000000000000000000000815260200150600f018265ffffffffffff1660d01b8152600601807f2e0000000000000000000000000000000000000000000000000000000000000081526020015060010194505050505060405160208183030381529060405294508450505050505b949350505050565b60007f8000000000000000000000000000000000000000000000000000000000000000600183031d90505b919050565b60606136e984846000856137c363ffffffff16565b90506136f0565b9392505050565b600060006000601f90505b600f8160ff16111561375b5760006008820260ff1685901c905061372b8161398963ffffffff16565b61ffff1684179350835060108260ff1614151561374c57601084901b935083505b505b6001810390508050613702565b506000600f90505b60ff8160ff1610156137bc5760006008820260ff1685901c905061378c8161398963ffffffff16565b61ffff1683179250825060008260ff161415156137ad57601083901b925082505b505b6001810390508050613763565b505b915091565b6060824710151515613820576040517f08c379a0000000000000000000000000000000000000000000000000000000008152600401808060200182810382526026815260200180613cad6026913960400191505060405180910390fd5b61382f856139d563ffffffff16565b15156138a6576040517f08c379a000000000000000000000000000000000000000000000000000000000815260040180806020018281038252601d8152602001807f416464726573733a2063616c6c20746f206e6f6e2d636f6e747261637400000081526020015060200191505060405180910390fd5b600060008673ffffffffffffffffffffffffffffffffffffffff1685876040518082805190602001908083835b6020831015156138f957805182525b6020820191506020810190506020830392506138d3565b6001836020036101000a03801982511681845116808217855250505050505090500191505060006040518083038185875af1925050503d806000811461395b576040519150601f19603f3d011682016040523d82523d6000602084013e613960565b606091505b50915091506139768282866139ef63ffffffff16565b925050506139815650505b949350505050565b60006139a160048360ff16901c613ac763ffffffff16565b60ff1681179050805060088161ffff16901b905080506139c682613ac763ffffffff16565b60ff168117905080505b919050565b60006000823b9050600081119150506139ea56505b919050565b60608315613a0357829050613ac056613abf565b600083511115613a1b5782518084602001fd50613abe565b816040517f08c379a00000000000000000000000000000000000000000000000000000000081526004018080602001828103825283818151815260200191508051906020019080838360005b83811015613a835780820151818401525b602081019050613a67565b50505050905090810190601f168015613ab05780820380516001836020036101000a031916815260200191505b509250505060405180910390fd5b5b5b9392505050565b6000600060f08317905060f08160ff161415613ae7576030915050613c33565b60f18160ff161415613afd576031915050613c33565b60f28160ff161415613b13576032915050613c33565b60f38160ff161415613b29576033915050613c33565b60f48160ff161415613b3f576034915050613c33565b60f58160ff161415613b55576035915050613c33565b60f68160ff161415613b6b576036915050613c33565b60f78160ff161415613b81576037915050613c33565b60f88160ff161415613b97576038915050613c33565b60f98160ff161415613bad576039915050613c33565b60fa8160ff161415613bc3576061915050613c33565b60fb8160ff161415613bd9576062915050613c33565b60fc8160ff161415613bef576063915050613c33565b60fd8160ff161415613c05576064915050613c33565b60fe8160ff161415613c1b576065915050613c33565b60ff8160ff161415613c31576066915050613c33565b505b91905056fe4f776e61626c6532537465703a2063616c6c6572206973206e6f7420746865206e6577206f776e6572526573637561626c653a206e6577207265736375657220697320746865207a65726f206164647265737352656d6f746520546f6b656e4d657373656e67657220756e737570706f72746564416464726573733a20696e73756666696369656e742062616c616e636520666f722063616c6c2e20417474656d7074656420746f20696e646578206174206f6666736574203078526573637561626c653a2063616c6c6572206973206e6f7420746865207265736375657254797065644d656d566965772f696e646578202d20417474656d7074656420746f20696e646578206d6f7265207468616e2033322062797465735361666545524332303a204552433230206f7065726174696f6e20646964206e6f74207375636365656454797065644d656d566965772f696e646578202d204f76657272616e2074686520766965772e20536c696365206973206174203078a26469706673582212206a49f28f4193301f94068aad753e9e4f52920cbf8f1886a340caab838ef91bd564736f6c63430007060033","linkReferences":{"src/messages/Message.sol":{"Message":[{"start":2780,"length":20},{"start":3716,"length":20},{"start":6266,"length":20},{"start":10287,"length":20},{"start":10452,"length":20}]}}},"methodIdentifiers":{"acceptOwnership()":"79ba5097","addLocalMinter(address)":"8197beb9","addRemoteTokenMessenger(uint32,bytes32)":"da87e448","depositForBurn(uint256,uint32,bytes32,address)":"6fd3504e","depositForBurnWithCaller(uint256,uint32,bytes32,address,bytes32)":"f856ddb6","handleReceiveMessage(uint32,bytes32,bytes)":"96abeb70","localMessageTransmitter()":"2c121921","localMinter()":"cb75c11c","messageBodyVersion()":"9cdbb181","owner()":"8da5cb5b","pendingOwner()":"e30c3978","remoteTokenMessengers(uint32)":"82a5e665","removeLocalMinter()":"91f17888","removeRemoteTokenMessenger(uint32)":"f79fd08e","replaceDepositForBurn(bytes,bytes,bytes32,bytes32)":"29a78e33","rescueERC20(address,address,uint256)":"b2118a8d","rescuer()":"38a63183","transferOwnership(address)":"f2fde38b","updateRescuer(address)":"2ab60045"},"id":17}