{"abi":[{"type":"function","name":"acceptOwnership","inputs":[],"outputs":[],"stateMutability":"nonpayable"},{"type":"function","name":"owner","inputs":[],"outputs":[{"name":"","type":"address","internalType":"address"}],"stateMutability":"view"},{"type":"function","name":"pause","inputs":[],"outputs":[],"stateMutability":"nonpayable"},{"type":"function","name":"paused","inputs":[],"outputs":[{"name":"","type":"bool","internalType":"bool"}],"stateMutability":"view"},{"type":"function","name":"pauser","inputs":[],"outputs":[{"name":"","type":"address","internalType":"address"}],"stateMutability":"view"},{"type":"function","name":"pendingOwner","inputs":[],"outputs":[{"name":"","type":"address","internalType":"address"}],"stateMutability":"view"},{"type":"function","name":"transferOwnership","inputs":[{"name":"newOwner","type":"address","internalType":"address"}],"outputs":[],"stateMutability":"nonpayable"},{"type":"function","name":"unpause","inputs":[],"outputs":[],"stateMutability":"nonpayable"},{"type":"function","name":"updatePauser","inputs":[{"name":"_newPauser","type":"address","internalType":"address"}],"outputs":[],"stateMutability":"nonpayable"},{"type":"event","name":"OwnershipTransferStarted","inputs":[{"name":"previousOwner","type":"address","indexed":true,"internalType":"address"},{"name":"newOwner","type":"address","indexed":true,"internalType":"address"}],"anonymous":false},{"type":"event","name":"OwnershipTransferred","inputs":[{"name":"previousOwner","type":"address","indexed":true,"internalType":"address"},{"name":"newOwner","type":"address","indexed":true,"internalType":"address"}],"anonymous":false},{"type":"event","name":"Pause","inputs":[],"anonymous":false},{"type":"event","name":"PauserChanged","inputs":[{"name":"newAddress","type":"address","indexed":true,"internalType":"address"}],"anonymous":false},{"type":"event","name":"Unpause","inputs":[],"anonymous":false}],"bytecode":{"object":"0x60806040526000600260146101000a81548160ff02191690831515021790555034801561002c5760006000fd5b505b61004a61003f61005060201b60201c565b61005d60201b60201c565b5b610160565b600033905061005a565b90565b600160006101000a81549073ffffffffffffffffffffffffffffffffffffffff02191690556100958161009960201b61073c1760201c565b5b50565b6000600060009054906101000a900473ffffffffffffffffffffffffffffffffffffffff16905081600060006101000a81548173ffffffffffffffffffffffffffffffffffffffff021916908373ffffffffffffffffffffffffffffffffffffffff1602179055508173ffffffffffffffffffffffffffffffffffffffff168173ffffffffffffffffffffffffffffffffffffffff167f8be0079c531659141344cd1fd0a4f28419497f9722a3daafe3b4186f6b6457e060405160405180910390a3505b50565b6109b48061016f6000396000f3fe60806040523480156100115760006000fd5b50600436106100985760003560e01c80638456cb59116100675780638456cb59146101175780638da5cb5b146101215780639fd0506d14610155578063e30c397814610189578063f2fde38b146101bd57610098565b80633f4ba83a1461009e578063554bab3c146100a85780635c975abb146100ed57806379ba50971461010d57610098565b60006000fd5b6100a6610202565b005b6100eb600480360360208110156100bf5760006000fd5b81019080803573ffffffffffffffffffffffffffffffffffffffff1690602001909291905050506102f5565b005b6100f5610436565b60405180821515815260200191505060405180910390f35b610115610449565b005b61011f610501565b005b6101296105f4565b604051808273ffffffffffffffffffffffffffffffffffffffff16815260200191505060405180910390f35b61015d610623565b604051808273ffffffffffffffffffffffffffffffffffffffff16815260200191505060405180910390f35b610191610652565b604051808273ffffffffffffffffffffffffffffffffffffffff16815260200191505060405180910390f35b610200600480360360208110156101d45760006000fd5b81019080803573ffffffffffffffffffffffffffffffffffffffff169060200190929190505050610681565b005b600260009054906101000a900473ffffffffffffffffffffffffffffffffffffffff1673ffffffffffffffffffffffffffffffffffffffff163373ffffffffffffffffffffffffffffffffffffffff161415156102aa576040517f08c379a000000000000000000000000000000000000000000000000000000000815260040180806020018281038252602281526020018061095d6022913960400191505060405180910390fd5b6000600260146101000a81548160ff0219169083151502179055507f7805862f689e2f13df9f062ff482ad3ad112aca9e0847911ed832e158c525b3360405160405180910390a15b5b565b61030361080363ffffffff16565b600073ffffffffffffffffffffffffffffffffffffffff168173ffffffffffffffffffffffffffffffffffffffff161415151561038b576040517f08c379a000000000000000000000000000000000000000000000000000000000815260040180806020018281038252602881526020018061090c6028913960400191505060405180910390fd5b80600260006101000a81548173ffffffffffffffffffffffffffffffffffffffff021916908373ffffffffffffffffffffffffffffffffffffffff160217905550600260009054906101000a900473ffffffffffffffffffffffffffffffffffffffff1673ffffffffffffffffffffffffffffffffffffffff167fb80482a293ca2e013eda8683c9bd7fc8347cfdaeea5ede58cba46df502c2a60460405160405180910390a25b5b50565b600260149054906101000a900460ff1681565b60006104596108c663ffffffff16565b90508073ffffffffffffffffffffffffffffffffffffffff1661048061065263ffffffff16565b73ffffffffffffffffffffffffffffffffffffffff161415156104ee576040517f08c379a00000000000000000000000000000000000000000000000000000000081526004018080602001828103825260298152602001806109346029913960400191505060405180910390fd5b6104fd816108d363ffffffff16565b505b565b600260009054906101000a900473ffffffffffffffffffffffffffffffffffffffff1673ffffffffffffffffffffffffffffffffffffffff163373ffffffffffffffffffffffffffffffffffffffff161415156105a9576040517f08c379a000000000000000000000000000000000000000000000000000000000815260040180806020018281038252602281526020018061095d6022913960400191505060405180910390fd5b6001600260146101000a81548160ff0219169083151502179055507f6985a02210a168e66602d3235cb6db0e70f92b3ba4d376a33c0f3d9434bff62560405160405180910390a15b5b565b6000600060009054906101000a900473ffffffffffffffffffffffffffffffffffffffff169050610620565b90565b6000600260009054906101000a900473ffffffffffffffffffffffffffffffffffffffff16905061064f565b90565b6000600160009054906101000a900473ffffffffffffffffffffffffffffffffffffffff16905061067e565b90565b61068f61080363ffffffff16565b80600160006101000a81548173ffffffffffffffffffffffffffffffffffffffff021916908373ffffffffffffffffffffffffffffffffffffffff1602179055508073ffffffffffffffffffffffffffffffffffffffff166106f56105f463ffffffff16565b73ffffffffffffffffffffffffffffffffffffffff167f38d16b8cac22d99fc7c124b9cd0de2d3fa1faef420bfe791d8c362d765e2270060405160405180910390a35b5b50565b6000600060009054906101000a900473ffffffffffffffffffffffffffffffffffffffff16905081600060006101000a81548173ffffffffffffffffffffffffffffffffffffffff021916908373ffffffffffffffffffffffffffffffffffffffff1602179055508173ffffffffffffffffffffffffffffffffffffffff168173ffffffffffffffffffffffffffffffffffffffff167f8be0079c531659141344cd1fd0a4f28419497f9722a3daafe3b4186f6b6457e060405160405180910390a3505b50565b6108116108c663ffffffff16565b73ffffffffffffffffffffffffffffffffffffffff166108356105f463ffffffff16565b73ffffffffffffffffffffffffffffffffffffffff161415156108c3576040517f08c379a00000000000000000000000000000000000000000000000000000000081526004018080602001828103825260208152602001807f4f776e61626c653a2063616c6c6572206973206e6f7420746865206f776e657281526020015060200191505060405180910390fd5b5b565b60003390506108d0565b90565b600160006101000a81549073ffffffffffffffffffffffffffffffffffffffff02191690556109078161073c63ffffffff16565b5b5056fe5061757361626c653a206e65772070617573657220697320746865207a65726f20616464726573734f776e61626c6532537465703a2063616c6c6572206973206e6f7420746865206e6577206f776e65725061757361626c653a2063616c6c6572206973206e6f742074686520706175736572a2646970667358221220fd2b511ad355d8493e4538071121cef8c04e34d2ba869be773dcaf97221343a764736f6c63430007060033","linkReferences":{}},"methodIdentifiers":{"acceptOwnership()":"79ba5097","owner()":"8da5cb5b","pause()":"8456cb59","paused()":"5c975abb","pauser()":"9fd0506d","pendingOwner()":"e30c3978","transferOwnership(address)":"f2fde38b","unpause()":"3f4ba83a","updatePauser(address)":"554bab3c"},"id":30}