{"abi":[{"type":"function","name":"NULL","inputs":[],"outputs":[{"name":"","type":"bytes29","internalType":"bytes29"}],"stateMutability":"view"}],"bytecode":{"object":"0x60b8610027600b82828239805160001a6073141515601957fe5b30600052607381538281f350fe730000000000000000000000000000000000000000301460806040526004361060365760003560e01c8063f26be3fc14603c576036565b60006000fd5b6042605e565b604051808262ffffff1916815260200191505060405180910390f35b7fffffffffffffffffffffffffffffffffffffffffffffffffffffffffff0000008156fea264697066735822122027e70b86dad3cdb355c50ebb27d6d3754d41d89cbaa679ad133c21ae27a7bace64736f6c63430007060033","linkReferences":{}},"methodIdentifiers":{"NULL()":"f26be3fc"},"id":8}